{
  "_format": "hh-sol-artifact-1",
  "contractName": "TeamDao",
  "sourceName": "contracts/teamDao/teamDao.sol",
  "abi": [
    {
      "inputs": [],
      "stateMutability": "nonpayable",
      "type": "constructor"
    },
    {
      "anonymous": false,
      "inputs": [
        {
          "indexed": true,
          "internalType": "address",
          "name": "_user",
          "type": "address"
        },
        {
          "indexed": true,
          "internalType": "address",
          "name": "_inviter",
          "type": "address"
        }
      ],
      "name": "ActiveLeader",
      "type": "event"
    },
    {
      "anonymous": false,
      "inputs": [
        {
          "indexed": true,
          "internalType": "address",
          "name": "_user",
          "type": "address"
        },
        {
          "indexed": true,
          "internalType": "address",
          "name": "_inviter",
          "type": "address"
        }
      ],
      "name": "BindInviter",
      "type": "event"
    },
    {
      "anonymous": false,
      "inputs": [
        {
          "indexed": true,
          "internalType": "address",
          "name": "_user",
          "type": "address"
        },
        {
          "indexed": true,
          "internalType": "address",
          "name": "_inviter",
          "type": "address"
        },
        {
          "indexed": false,
          "internalType": "uint256",
          "name": "_amount",
          "type": "uint256"
        }
      ],
      "name": "ContributeInviteEarn",
      "type": "event"
    },
    {
      "anonymous": false,
      "inputs": [
        {
          "indexed": true,
          "internalType": "address",
          "name": "_leader",
          "type": "address"
        },
        {
          "indexed": false,
          "internalType": "uint256",
          "name": "_id",
          "type": "uint256"
        }
      ],
      "name": "QuitRegisterLeader",
      "type": "event"
    },
    {
      "anonymous": false,
      "inputs": [
        {
          "indexed": true,
          "internalType": "address",
          "name": "_leader",
          "type": "address"
        },
        {
          "indexed": false,
          "internalType": "uint256",
          "name": "_id",
          "type": "uint256"
        }
      ],
      "name": "RegisterLeader",
      "type": "event"
    },
    {
      "anonymous": false,
      "inputs": [
        {
          "indexed": true,
          "internalType": "bytes32",
          "name": "role",
          "type": "bytes32"
        },
        {
          "indexed": true,
          "internalType": "bytes32",
          "name": "previousAdminRole",
          "type": "bytes32"
        },
        {
          "indexed": true,
          "internalType": "bytes32",
          "name": "newAdminRole",
          "type": "bytes32"
        }
      ],
      "name": "RoleAdminChanged",
      "type": "event"
    },
    {
      "anonymous": false,
      "inputs": [
        {
          "indexed": true,
          "internalType": "bytes32",
          "name": "role",
          "type": "bytes32"
        },
        {
          "indexed": true,
          "internalType": "address",
          "name": "account",
          "type": "address"
        },
        {
          "indexed": true,
          "internalType": "address",
          "name": "sender",
          "type": "address"
        }
      ],
      "name": "RoleGranted",
      "type": "event"
    },
    {
      "anonymous": false,
      "inputs": [
        {
          "indexed": true,
          "internalType": "bytes32",
          "name": "role",
          "type": "bytes32"
        },
        {
          "indexed": true,
          "internalType": "address",
          "name": "account",
          "type": "address"
        },
        {
          "indexed": true,
          "internalType": "address",
          "name": "sender",
          "type": "address"
        }
      ],
      "name": "RoleRevoked",
      "type": "event"
    },
    {
      "anonymous": false,
      "inputs": [
        {
          "indexed": true,
          "internalType": "address",
          "name": "_leader",
          "type": "address"
        }
      ],
      "name": "UpdateLeaderEffectFailed",
      "type": "event"
    },
    {
      "anonymous": false,
      "inputs": [
        {
          "indexed": true,
          "internalType": "address",
          "name": "_leader",
          "type": "address"
        },
        {
          "indexed": false,
          "internalType": "uint256",
          "name": "_id",
          "type": "uint256"
        }
      ],
      "name": "UpdateLeaderId",
      "type": "event"
    },
    {
      "anonymous": false,
      "inputs": [
        {
          "indexed": true,
          "internalType": "address",
          "name": "_user",
          "type": "address"
        },
        {
          "indexed": false,
          "internalType": "address",
          "name": "_token",
          "type": "address"
        },
        {
          "indexed": false,
          "internalType": "uint256",
          "name": "_amount",
          "type": "uint256"
        }
      ],
      "name": "WithdrawReward",
      "type": "event"
    },
    {
      "inputs": [],
      "name": "DEFAULT_ADMIN_ROLE",
      "outputs": [
        {
          "internalType": "bytes32",
          "name": "",
          "type": "bytes32"
        }
      ],
      "stateMutability": "view",
      "type": "function"
    },
    {
      "inputs": [],
      "name": "MANAGER_ROLE",
      "outputs": [
        {
          "internalType": "bytes32",
          "name": "",
          "type": "bytes32"
        }
      ],
      "stateMutability": "view",
      "type": "function"
    },
    {
      "inputs": [],
      "name": "ScpShop",
      "outputs": [
        {
          "internalType": "contract SCPBox2",
          "name": "",
          "type": "address"
        }
      ],
      "stateMutability": "view",
      "type": "function"
    },
    {
      "inputs": [],
      "name": "activateInviter",
      "outputs": [],
      "stateMutability": "nonpayable",
      "type": "function"
    },
    {
      "inputs": [
        {
          "internalType": "address",
          "name": "_user",
          "type": "address"
        }
      ],
      "name": "activateInviterByManger",
      "outputs": [],
      "stateMutability": "nonpayable",
      "type": "function"
    },
    {
      "inputs": [
        {
          "internalType": "uint256",
          "name": "",
          "type": "uint256"
        }
      ],
      "name": "bindArr",
      "outputs": [
        {
          "internalType": "uint256",
          "name": "",
          "type": "uint256"
        }
      ],
      "stateMutability": "view",
      "type": "function"
    },
    {
      "inputs": [
        {
          "internalType": "address",
          "name": "_inviter",
          "type": "address"
        }
      ],
      "name": "bindInviter",
      "outputs": [],
      "stateMutability": "nonpayable",
      "type": "function"
    },
    {
      "inputs": [],
      "name": "bindUsdtAmount",
      "outputs": [
        {
          "internalType": "uint256",
          "name": "",
          "type": "uint256"
        }
      ],
      "stateMutability": "view",
      "type": "function"
    },
    {
      "inputs": [],
      "name": "busd",
      "outputs": [
        {
          "internalType": "contract IERC20",
          "name": "",
          "type": "address"
        }
      ],
      "stateMutability": "view",
      "type": "function"
    },
    {
      "inputs": [
        {
          "internalType": "address",
          "name": "tokenAddr",
          "type": "address"
        },
        {
          "internalType": "address",
          "name": "user",
          "type": "address"
        },
        {
          "internalType": "uint256",
          "name": "amount",
          "type": "uint256"
        }
      ],
      "name": "claimToken",
      "outputs": [],
      "stateMutability": "nonpayable",
      "type": "function"
    },
    {
      "inputs": [],
      "name": "currentBoxType",
      "outputs": [
        {
          "internalType": "uint256",
          "name": "",
          "type": "uint256"
        }
      ],
      "stateMutability": "view",
      "type": "function"
    },
    {
      "inputs": [
        {
          "internalType": "address",
          "name": "_user",
          "type": "address"
        }
      ],
      "name": "getInviterTeamLeader",
      "outputs": [
        {
          "internalType": "address",
          "name": "",
          "type": "address"
        }
      ],
      "stateMutability": "view",
      "type": "function"
    },
    {
      "inputs": [
        {
          "internalType": "bytes32",
          "name": "role",
          "type": "bytes32"
        }
      ],
      "name": "getRoleAdmin",
      "outputs": [
        {
          "internalType": "bytes32",
          "name": "",
          "type": "bytes32"
        }
      ],
      "stateMutability": "view",
      "type": "function"
    },
    {
      "inputs": [
        {
          "internalType": "bytes32",
          "name": "role",
          "type": "bytes32"
        },
        {
          "internalType": "uint256",
          "name": "index",
          "type": "uint256"
        }
      ],
      "name": "getRoleMember",
      "outputs": [
        {
          "internalType": "address",
          "name": "",
          "type": "address"
        }
      ],
      "stateMutability": "view",
      "type": "function"
    },
    {
      "inputs": [
        {
          "internalType": "bytes32",
          "name": "role",
          "type": "bytes32"
        }
      ],
      "name": "getRoleMemberCount",
      "outputs": [
        {
          "internalType": "uint256",
          "name": "",
          "type": "uint256"
        }
      ],
      "stateMutability": "view",
      "type": "function"
    },
    {
      "inputs": [
        {
          "internalType": "address",
          "name": "_user",
          "type": "address"
        }
      ],
      "name": "getTeamLeader",
      "outputs": [
        {
          "internalType": "address",
          "name": "",
          "type": "address"
        }
      ],
      "stateMutability": "view",
      "type": "function"
    },
    {
      "inputs": [
        {
          "internalType": "bytes32",
          "name": "role",
          "type": "bytes32"
        },
        {
          "internalType": "address",
          "name": "account",
          "type": "address"
        }
      ],
      "name": "grantRole",
      "outputs": [],
      "stateMutability": "nonpayable",
      "type": "function"
    },
    {
      "inputs": [
        {
          "internalType": "bytes32",
          "name": "role",
          "type": "bytes32"
        },
        {
          "internalType": "address",
          "name": "account",
          "type": "address"
        }
      ],
      "name": "hasRole",
      "outputs": [
        {
          "internalType": "bool",
          "name": "",
          "type": "bool"
        }
      ],
      "stateMutability": "view",
      "type": "function"
    },
    {
      "inputs": [],
      "name": "initLimitReward",
      "outputs": [
        {
          "internalType": "uint256",
          "name": "",
          "type": "uint256"
        }
      ],
      "stateMutability": "view",
      "type": "function"
    },
    {
      "inputs": [
        {
          "internalType": "uint256",
          "name": "_id",
          "type": "uint256"
        }
      ],
      "name": "isLeaderIdExist",
      "outputs": [
        {
          "internalType": "bool",
          "name": "",
          "type": "bool"
        }
      ],
      "stateMutability": "nonpayable",
      "type": "function"
    },
    {
      "inputs": [
        {
          "internalType": "address",
          "name": "",
          "type": "address"
        }
      ],
      "name": "leaders",
      "outputs": [
        {
          "internalType": "address",
          "name": "leader",
          "type": "address"
        },
        {
          "internalType": "uint256",
          "name": "staked",
          "type": "uint256"
        },
        {
          "internalType": "uint256",
          "name": "leaderId",
          "type": "uint256"
        },
        {
          "internalType": "uint256",
          "name": "limitRewardSCT",
          "type": "uint256"
        },
        {
          "internalType": "uint256",
          "name": "unlockedRewardSCT",
          "type": "uint256"
        },
        {
          "internalType": "uint256",
          "name": "withdrawedRewardSCT",
          "type": "uint256"
        },
        {
          "internalType": "bool",
          "name": "effect",
          "type": "bool"
        },
        {
          "internalType": "uint256",
          "name": "lastWithdrawblock",
          "type": "uint256"
        }
      ],
      "stateMutability": "view",
      "type": "function"
    },
    {
      "inputs": [
        {
          "internalType": "uint256",
          "name": "",
          "type": "uint256"
        }
      ],
      "name": "leadrIdsList",
      "outputs": [
        {
          "internalType": "address",
          "name": "",
          "type": "address"
        }
      ],
      "stateMutability": "view",
      "type": "function"
    },
    {
      "inputs": [],
      "name": "lpBusdSct",
      "outputs": [
        {
          "internalType": "contract IPancakePair",
          "name": "",
          "type": "address"
        }
      ],
      "stateMutability": "view",
      "type": "function"
    },
    {
      "inputs": [],
      "name": "maxSlippage",
      "outputs": [
        {
          "internalType": "uint256",
          "name": "",
          "type": "uint256"
        }
      ],
      "stateMutability": "view",
      "type": "function"
    },
    {
      "inputs": [],
      "name": "minStakeAmount",
      "outputs": [
        {
          "internalType": "uint256",
          "name": "",
          "type": "uint256"
        }
      ],
      "stateMutability": "view",
      "type": "function"
    },
    {
      "inputs": [],
      "name": "onceBindRewardSct",
      "outputs": [
        {
          "internalType": "uint256",
          "name": "",
          "type": "uint256"
        }
      ],
      "stateMutability": "view",
      "type": "function"
    },
    {
      "inputs": [],
      "name": "pancakeRouter",
      "outputs": [
        {
          "internalType": "contract IPancakeRouter02",
          "name": "",
          "type": "address"
        }
      ],
      "stateMutability": "view",
      "type": "function"
    },
    {
      "inputs": [],
      "name": "pool",
      "outputs": [
        {
          "internalType": "contract PlanetPool",
          "name": "",
          "type": "address"
        }
      ],
      "stateMutability": "view",
      "type": "function"
    },
    {
      "inputs": [
        {
          "internalType": "uint256",
          "name": "_amount",
          "type": "uint256"
        }
      ],
      "name": "preApprove",
      "outputs": [],
      "stateMutability": "nonpayable",
      "type": "function"
    },
    {
      "inputs": [],
      "name": "quitRegister",
      "outputs": [],
      "stateMutability": "nonpayable",
      "type": "function"
    },
    {
      "inputs": [],
      "name": "registerTeamLeader",
      "outputs": [],
      "stateMutability": "nonpayable",
      "type": "function"
    },
    {
      "inputs": [
        {
          "internalType": "bytes32",
          "name": "role",
          "type": "bytes32"
        },
        {
          "internalType": "address",
          "name": "account",
          "type": "address"
        }
      ],
      "name": "renounceRole",
      "outputs": [],
      "stateMutability": "nonpayable",
      "type": "function"
    },
    {
      "inputs": [
        {
          "internalType": "bytes32",
          "name": "role",
          "type": "bytes32"
        },
        {
          "internalType": "address",
          "name": "account",
          "type": "address"
        }
      ],
      "name": "revokeRole",
      "outputs": [],
      "stateMutability": "nonpayable",
      "type": "function"
    },
    {
      "inputs": [],
      "name": "rewardCalcRatio",
      "outputs": [
        {
          "internalType": "uint256",
          "name": "",
          "type": "uint256"
        }
      ],
      "stateMutability": "view",
      "type": "function"
    },
    {
      "inputs": [],
      "name": "rewardToken",
      "outputs": [
        {
          "internalType": "contract IERC20",
          "name": "",
          "type": "address"
        }
      ],
      "stateMutability": "view",
      "type": "function"
    },
    {
      "inputs": [],
      "name": "sct",
      "outputs": [
        {
          "internalType": "contract IERC20",
          "name": "",
          "type": "address"
        }
      ],
      "stateMutability": "view",
      "type": "function"
    },
    {
      "inputs": [
        {
          "internalType": "uint256[]",
          "name": "_bindAmountArr",
          "type": "uint256[]"
        }
      ],
      "name": "setBindAmountArr",
      "outputs": [],
      "stateMutability": "nonpayable",
      "type": "function"
    },
    {
      "inputs": [
        {
          "internalType": "uint256",
          "name": "_bindUsdtAmount",
          "type": "uint256"
        }
      ],
      "name": "setBindUsdtAmount",
      "outputs": [],
      "stateMutability": "nonpayable",
      "type": "function"
    },
    {
      "inputs": [
        {
          "internalType": "uint256",
          "name": "_currentLeaderID",
          "type": "uint256"
        }
      ],
      "name": "setCurrentLeaderID",
      "outputs": [],
      "stateMutability": "nonpayable",
      "type": "function"
    },
    {
      "inputs": [
        {
          "internalType": "address",
          "name": "_leader",
          "type": "address"
        },
        {
          "internalType": "bool",
          "name": "effect",
          "type": "bool"
        }
      ],
      "name": "setLeaderEffect",
      "outputs": [],
      "stateMutability": "nonpayable",
      "type": "function"
    },
    {
      "inputs": [
        {
          "internalType": "uint256",
          "name": "_currentLeaderID",
          "type": "uint256"
        },
        {
          "internalType": "uint256",
          "name": "_newID",
          "type": "uint256"
        }
      ],
      "name": "setLeaderID",
      "outputs": [],
      "stateMutability": "nonpayable",
      "type": "function"
    },
    {
      "inputs": [
        {
          "internalType": "uint256",
          "name": "_maxSlippage",
          "type": "uint256"
        }
      ],
      "name": "setMaxSlippage",
      "outputs": [],
      "stateMutability": "nonpayable",
      "type": "function"
    },
    {
      "inputs": [
        {
          "internalType": "uint256",
          "name": "_minStakeAmount",
          "type": "uint256"
        }
      ],
      "name": "setMinStakeAmount",
      "outputs": [],
      "stateMutability": "nonpayable",
      "type": "function"
    },
    {
      "inputs": [
        {
          "internalType": "uint256",
          "name": "_onceBindRewardSct",
          "type": "uint256"
        }
      ],
      "name": "setOnceBindRewardSct",
      "outputs": [],
      "stateMutability": "nonpayable",
      "type": "function"
    },
    {
      "inputs": [
        {
          "internalType": "uint256",
          "name": "_ratio",
          "type": "uint256"
        }
      ],
      "name": "setRatio",
      "outputs": [],
      "stateMutability": "nonpayable",
      "type": "function"
    },
    {
      "inputs": [
        {
          "internalType": "address",
          "name": "_treasury",
          "type": "address"
        }
      ],
      "name": "setTreasury",
      "outputs": [],
      "stateMutability": "nonpayable",
      "type": "function"
    },
    {
      "inputs": [],
      "name": "stakeToken",
      "outputs": [
        {
          "internalType": "contract IERC20",
          "name": "",
          "type": "address"
        }
      ],
      "stateMutability": "view",
      "type": "function"
    },
    {
      "inputs": [
        {
          "internalType": "bytes4",
          "name": "interfaceId",
          "type": "bytes4"
        }
      ],
      "name": "supportsInterface",
      "outputs": [
        {
          "internalType": "bool",
          "name": "",
          "type": "bool"
        }
      ],
      "stateMutability": "view",
      "type": "function"
    },
    {
      "inputs": [],
      "name": "treasury",
      "outputs": [
        {
          "internalType": "address",
          "name": "",
          "type": "address"
        }
      ],
      "stateMutability": "view",
      "type": "function"
    },
    {
      "inputs": [
        {
          "internalType": "address",
          "name": "",
          "type": "address"
        }
      ],
      "name": "users",
      "outputs": [
        {
          "internalType": "address",
          "name": "",
          "type": "address"
        }
      ],
      "stateMutability": "view",
      "type": "function"
    },
    {
      "inputs": [],
      "name": "viewCanRegisterTeamLeader",
      "outputs": [
        {
          "internalType": "bool",
          "name": "",
          "type": "bool"
        }
      ],
      "stateMutability": "view",
      "type": "function"
    },
    {
      "inputs": [
        {
          "internalType": "address",
          "name": "_addr",
          "type": "address"
        }
      ],
      "name": "waitharvestReward",
      "outputs": [
        {
          "internalType": "uint256",
          "name": "",
          "type": "uint256"
        }
      ],
      "stateMutability": "view",
      "type": "function"
    },
    {
      "inputs": [],
      "name": "withdrawReward",
      "outputs": [],
      "stateMutability": "nonpayable",
      "type": "function"
    }
  ],
  "bytecode": "0x60806040527355d398326f99059ff775485246999027b3197955600460006101000a81548173ffffffffffffffffffffffffffffffffffffffff021916908373ffffffffffffffffffffffffffffffffffffffff16021790555069021e19e0c9bab2400000600955692a5a058fc295ed000000600a55681043561a8829300000600b55681b1ae4d6e2ef500000600c556040518060400160405280610bb861ffff1681526020016103e861ffff16815250600d906002620000c29291906200069b565b50348015620000d057600080fd5b50620000e66000801b336200040f60201b60201c565b620001187f241ecf16d79d0f8dbfb92cbc07fe17840425976cf0667f022fe9877caa831b08336200040f60201b60201c565b7310ed43c718714eb63d5aa57b78b54704e256024e600e60006101000a81548173ffffffffffffffffffffffffffffffffffffffff021916908373ffffffffffffffffffffffffffffffffffffffff1602179055507315c767f32b04a4d3d29d90ae4b3c20506e441ad6601160006101000a81548173ffffffffffffffffffffffffffffffffffffffff021916908373ffffffffffffffffffffffffffffffffffffffff1602179055507355d398326f99059ff775485246999027b3197955601060006101000a81548173ffffffffffffffffffffffffffffffffffffffff021916908373ffffffffffffffffffffffffffffffffffffffff160217905550737a27f0419289d703896877594b93a023828585e4600f60006101000a81548173ffffffffffffffffffffffffffffffffffffffff021916908373ffffffffffffffffffffffffffffffffffffffff16021790555073206707b2cc8ae6ddc2d24278eb0ee72e25374111600260006101000a81548173ffffffffffffffffffffffffffffffffffffffff021916908373ffffffffffffffffffffffffffffffffffffffff160217905550737a27f0419289d703896877594b93a023828585e4600360006101000a81548173ffffffffffffffffffffffffffffffffffffffff021916908373ffffffffffffffffffffffffffffffffffffffff16021790555061271060068190555061012c60138190555061dead601260006101000a81548173ffffffffffffffffffffffffffffffffffffffff021916908373ffffffffffffffffffffffffffffffffffffffff16021790555073f9507d5524343c4a18c7b2c62bc39bf3949bcb07601460006101000a81548173ffffffffffffffffffffffffffffffffffffffff021916908373ffffffffffffffffffffffffffffffffffffffff160217905550600060158190555033600560006101000a81548173ffffffffffffffffffffffffffffffffffffffff021916908373ffffffffffffffffffffffffffffffffffffffff16021790555062000712565b6200042182826200042560201b60201c565b5050565b6200043782826200046360201b60201c565b6200045e81600160008581526020019081526020016000206200055460201b90919060201c565b505050565b6200047582826200058c60201b60201c565b6200055057600160008084815260200190815260200160002060000160008373ffffffffffffffffffffffffffffffffffffffff1673ffffffffffffffffffffffffffffffffffffffff16815260200190815260200160002060006101000a81548160ff021916908315150217905550620004f5620005f660201b60201c565b73ffffffffffffffffffffffffffffffffffffffff168173ffffffffffffffffffffffffffffffffffffffff16837f2f8788117e7eff1d82e926ec794901d17c78024a50270940304540a733656f0d60405160405180910390a45b5050565b600062000584836000018373ffffffffffffffffffffffffffffffffffffffff1660001b620005fe60201b60201c565b905092915050565b600080600084815260200190815260200160002060000160008373ffffffffffffffffffffffffffffffffffffffff1673ffffffffffffffffffffffffffffffffffffffff16815260200190815260200160002060009054906101000a900460ff16905092915050565b600033905090565b60006200061283836200067860201b60201c565b6200066d57826000018290806001815401808255809150506001900390600052602060002001600090919091909150558260000180549050836001016000848152602001908152602001600020819055506001905062000672565b600090505b92915050565b600080836001016000848152602001908152602001600020541415905092915050565b828054828255906000526020600020908101928215620006e0579160200282015b82811115620006df578251829061ffff16905591602001919060010190620006bc565b5b509050620006ef9190620006f3565b5090565b5b808211156200070e576000816000905550600101620006f4565b5090565b615e8680620007226000396000f3fe608060405234801561001057600080fd5b50600436106103275760003560e01c80638c04166f116101b8578063ca15c87311610104578063edc9b56e116100a2578063f7aa67eb1161007c578063f7aa67eb1461097d578063f7c618c11461099b578063fe8d2462146109b9578063ffba732b146109c357610327565b8063edc9b56e14610939578063f0f4426014610943578063f18876841461095f57610327565b8063dbca70dd116100de578063dbca70dd146108b1578063de05e4a8146108cf578063eb4af045146108ff578063ec87621c1461091b57610327565b8063ca15c87314610835578063d547741f14610865578063d6491c0e1461088157610327565b8063a5b4794a11610171578063c074994d1161014b578063c074994d146107d5578063c21ebd07146107f1578063c519c4e91461080f578063c885bc581461082b57610327565b8063a5b4794a1461076b578063a87430ba14610789578063b2237ba3146107b957610327565b80638c04166f146106975780639010d07c146106b557806391d14854146106e557806395b01c9014610715578063a14a9f8f14610731578063a217fddf1461074d57610327565b80633ca5b234116102775780636abb0b23116102305780637d2941061161020a5780637d29410614610611578063807eab3914610641578063824941881461065d57806384eba9ec1461067957610327565b80636abb0b231461059e57806372a070be146105bc578063749ea598146105da57610327565b80633ca5b234146104ee57806342cd745f1461050c57806343f68a491461052857806351ed6a301461054457806361d027b314610562578063651197c41461058057610327565b8063248a9ca3116102e45780632897fb1b116102be5780632897fb1b146104685780632f2ff15d146104985780633551548c146104b457806336568abe146104d257610327565b8063248a9ca3146104125780632820036414610442578063287317591461044c57610327565b806301ffc9a71461032c5780630923777a1461035c5780630cf7154b14610378578063125bfb66146103a857806316f0115b146103c457806323ee781d146103e2575b600080fd5b6103466004803603810190610341919061437c565b6109e1565b60405161035391906143c4565b60405180910390f35b61037660048036038101906103719190614444565b610a5b565b005b610392600480360381019061038d91906144c7565b610bb6565b60405161039f91906143c4565b60405180910390f35b6103c260048036038101906103bd9190614552565b610c22565b005b6103cc610c7d565b6040516103d99190614604565b60405180910390f35b6103fc60048036038101906103f7919061461f565b610ca3565b604051610409919061465b565b60405180910390f35b61042c600480360381019061042791906146ac565b610f25565b60405161043991906146e8565b60405180910390f35b61044a610f44565b005b6104666004803603810190610461919061461f565b611484565b005b610482600480360381019061047d919061461f565b611610565b60405161048f919061465b565b60405180910390f35b6104b260048036038101906104ad9190614703565b61188e565b005b6104bc6118af565b6040516104c99190614764565b60405180910390f35b6104ec60048036038101906104e79190614703565b6118d5565b005b6104f6611958565b6040516105039190614764565b60405180910390f35b610526600480360381019061052191906147ab565b61197e565b005b610542600480360381019061053d91906144c7565b611a0d565b005b61054c611a87565b6040516105599190614764565b60405180910390f35b61056a611aad565b604051610577919061465b565b60405180910390f35b610588611ad3565b60405161059591906147fa565b60405180910390f35b6105a6611ad9565b6040516105b391906147fa565b60405180910390f35b6105c4611adf565b6040516105d191906147fa565b60405180910390f35b6105f460048036038101906105ef919061461f565b611ae5565b604051610608989796959493929190614815565b60405180910390f35b61062b6004803603810190610626919061461f565b611b5a565b60405161063891906147fa565b60405180910390f35b61065b600480360381019061065691906144c7565b611cbe565b005b610677600480360381019061067291906144c7565b611db7565b005b610681611e31565b60405161068e91906143c4565b60405180910390f35b61069f611ee8565b6040516106ac91906147fa565b60405180910390f35b6106cf60048036038101906106ca9190614893565b611eee565b6040516106dc919061465b565b60405180910390f35b6106ff60048036038101906106fa9190614703565b611f1d565b60405161070c91906143c4565b60405180910390f35b61072f600480360381019061072a91906144c7565b611f87565b005b61074b6004803603810190610746919061461f565b612001565b005b610755612a8b565b60405161076291906146e8565b60405180910390f35b610773612a92565b60405161078091906147fa565b60405180910390f35b6107a3600480360381019061079e919061461f565b612a98565b6040516107b0919061465b565b60405180910390f35b6107d360048036038101906107ce91906144c7565b612acb565b005b6107ef60048036038101906107ea91906148d3565b612b43565b005b6107f9612cfa565b6040516108069190614934565b60405180910390f35b610829600480360381019061082491906144c7565b612d20565b005b610833612d98565b005b61084f600480360381019061084a91906146ac565b612f60565b60405161085c91906147fa565b60405180910390f35b61087f600480360381019061087a9190614703565b612f84565b005b61089b600480360381019061089691906144c7565b612fa5565b6040516108a8919061465b565b60405180910390f35b6108b9612fd8565b6040516108c691906147fa565b60405180910390f35b6108e960048036038101906108e491906144c7565b612fde565b6040516108f691906147fa565b60405180910390f35b610919600480360381019061091491906144c7565b613002565b005b61092361307b565b60405161093091906146e8565b60405180910390f35b61094161309f565b005b61095d6004803603810190610958919061461f565b6133c6565b005b610967613435565b60405161097491906147fa565b60405180910390f35b61098561343b565b6040516109929190614970565b60405180910390f35b6109a3613461565b6040516109b09190614764565b60405180910390f35b6109c1613487565b005b6109cb613653565b6040516109d891906149ac565b60405180910390f35b60007f5a05180f000000000000000000000000000000000000000000000000000000007bffffffffffffffffffffffffffffffffffffffffffffffffffffffff1916827bffffffffffffffffffffffffffffffffffffffffffffffffffffffff19161480610a545750610a5382613679565b5b9050919050565b7f241ecf16d79d0f8dbfb92cbc07fe17840425976cf0667f022fe9877caa831b08610a85816136f3565b60028383905014610acb576040517f08c379a0000000000000000000000000000000000000000000000000000000008152600401610ac290614a24565b60405180910390fd5b606483836000818110610ae157610ae0614a44565b5b9050602002013510610b28576040517f08c379a0000000000000000000000000000000000000000000000000000000008152600401610b1f90614abf565b60405180910390fd5b82826001818110610b3c57610b3b614a44565b5b9050602002013583836000818110610b5757610b56614a44565b5b905060200201351015610b9f576040517f08c379a0000000000000000000000000000000000000000000000000000000008152600401610b9690614abf565b60405180910390fd5b8282600d9190610bb09291906142a6565b50505050565b60008073ffffffffffffffffffffffffffffffffffffffff166017600084815260200190815260200160002060009054906101000a900473ffffffffffffffffffffffffffffffffffffffff1673ffffffffffffffffffffffffffffffffffffffff1614159050919050565b7f241ecf16d79d0f8dbfb92cbc07fe17840425976cf0667f022fe9877caa831b08610c4c816136f3565b610c7783838673ffffffffffffffffffffffffffffffffffffffff166137079092919063ffffffff16565b50505050565b600260009054906101000a900473ffffffffffffffffffffffffffffffffffffffff1681565b600080601860008473ffffffffffffffffffffffffffffffffffffffff1673ffffffffffffffffffffffffffffffffffffffff16815260200190815260200160002060009054906101000a900473ffffffffffffffffffffffffffffffffffffffff1690506000600190505b600073ffffffffffffffffffffffffffffffffffffffff168273ffffffffffffffffffffffffffffffffffffffff1614158015610d4c5750601e81105b15610f19576000601660008473ffffffffffffffffffffffffffffffffffffffff1673ffffffffffffffffffffffffffffffffffffffff168152602001908152602001600020604051806101000160405290816000820160009054906101000a900473ffffffffffffffffffffffffffffffffffffffff1673ffffffffffffffffffffffffffffffffffffffff1673ffffffffffffffffffffffffffffffffffffffff16815260200160018201548152602001600282015481526020016003820154815260200160048201548152602001600582015481526020016006820160009054906101000a900460ff1615151515815260200160078201548152505090508060c001518015610e8f5750600073ffffffffffffffffffffffffffffffffffffffff16816000015173ffffffffffffffffffffffffffffffffffffffff1614155b15610ea35780600001519350505050610f20565b601860008473ffffffffffffffffffffffffffffffffffffffff1673ffffffffffffffffffffffffffffffffffffffff16815260200190815260200160002060009054906101000a900473ffffffffffffffffffffffffffffffffffffffff1692508180610f1090614b0e565b92505050610d0f565b6000925050505b919050565b6000806000838152602001908152602001600020600101549050919050565b6000600260009054906101000a900473ffffffffffffffffffffffffffffffffffffffff1673ffffffffffffffffffffffffffffffffffffffff166384a748fa336040518263ffffffff1660e01b8152600401610fa1919061465b565b602060405180830381865afa158015610fbe573d6000803e3d6000fd5b505050506040513d601f19601f82011682018060405250810190610fe29190614b6b565b905060008114158015610ff457504381115b611033576040517f08c379a000000000000000000000000000000000000000000000000000000000815260040161102a90614c0a565b60405180910390fd5b6000601660003373ffffffffffffffffffffffffffffffffffffffff1673ffffffffffffffffffffffffffffffffffffffff16815260200190815260200160002090503373ffffffffffffffffffffffffffffffffffffffff168160000160009054906101000a900473ffffffffffffffffffffffffffffffffffffffff1673ffffffffffffffffffffffffffffffffffffffff161480156110ea5750600015158160060160009054906101000a900460ff161515145b156111f55760018160060160006101000a81548160ff0219169083151502179055506009548160010160008282546111229190614c2a565b9250508190555061119c33600560009054906101000a900473ffffffffffffffffffffffffffffffffffffffff16600954600460009054906101000a900473ffffffffffffffffffffffffffffffffffffffff1673ffffffffffffffffffffffffffffffffffffffff1661378d909392919063ffffffff16565b3373ffffffffffffffffffffffffffffffffffffffff167f06bfaaf0f44e8b91ffb62bf4fa817eb1e5dd870cf3c551b5b2cf456d28b2947982600201546040516111e691906147fa565b60405180910390a25050611482565b600073ffffffffffffffffffffffffffffffffffffffff168160000160009054906101000a900473ffffffffffffffffffffffffffffffffffffffff1673ffffffffffffffffffffffffffffffffffffffff1614611288576040517f08c379a000000000000000000000000000000000000000000000000000000000815260040161127f90614cd0565b60405180910390fd5b338160000160006101000a81548173ffffffffffffffffffffffffffffffffffffffff021916908373ffffffffffffffffffffffffffffffffffffffff160217905550600760008154809291906112de90614b0e565b919050558160020181905550600a548160030181905550600081600401819055506000816005018190555060095481600101600082825461131f9190614c2a565b9250508190555060018160060160006101000a81548160ff0219169083151502179055504381600701819055506008600081548092919061135f90614b0e565b919050555033601760008360020154815260200190815260200160002060006101000a81548173ffffffffffffffffffffffffffffffffffffffff021916908373ffffffffffffffffffffffffffffffffffffffff16021790555061142d33600560009054906101000a900473ffffffffffffffffffffffffffffffffffffffff16600954600460009054906101000a900473ffffffffffffffffffffffffffffffffffffffff1673ffffffffffffffffffffffffffffffffffffffff1661378d909392919063ffffffff16565b3373ffffffffffffffffffffffffffffffffffffffff167f06bfaaf0f44e8b91ffb62bf4fa817eb1e5dd870cf3c551b5b2cf456d28b29479826002015460405161147791906147fa565b60405180910390a250505b565b7f241ecf16d79d0f8dbfb92cbc07fe17840425976cf0667f022fe9877caa831b086114ae816136f3565b60006114b983611610565b90506000601660008373ffffffffffffffffffffffffffffffffffffffff1673ffffffffffffffffffffffffffffffffffffffff16815260200190815260200160002090508060060160009054906101000a900460ff16611575578173ffffffffffffffffffffffffffffffffffffffff168473ffffffffffffffffffffffffffffffffffffffff167fb5566e1d79eb0877b17aa59230fca5bee7b52a5732a23971d30fe9e7c8f3562260405160405180910390a3505061160c565b600b5481600401600082825461158b9190614c2a565b9250508190555080600301548160040154106115af57806003015481600401819055505b8173ffffffffffffffffffffffffffffffffffffffff168473ffffffffffffffffffffffffffffffffffffffff167fb5566e1d79eb0877b17aa59230fca5bee7b52a5732a23971d30fe9e7c8f3562260405160405180910390a350505b5050565b600080601860008473ffffffffffffffffffffffffffffffffffffffff1673ffffffffffffffffffffffffffffffffffffffff16815260200190815260200160002060009054906101000a900473ffffffffffffffffffffffffffffffffffffffff16905060005b600073ffffffffffffffffffffffffffffffffffffffff168273ffffffffffffffffffffffffffffffffffffffff16141580156116b55750601e81105b15611882576000601660008473ffffffffffffffffffffffffffffffffffffffff1673ffffffffffffffffffffffffffffffffffffffff168152602001908152602001600020604051806101000160405290816000820160009054906101000a900473ffffffffffffffffffffffffffffffffffffffff1673ffffffffffffffffffffffffffffffffffffffff1673ffffffffffffffffffffffffffffffffffffffff16815260200160018201548152602001600282015481526020016003820154815260200160048201548152602001600582015481526020016006820160009054906101000a900460ff1615151515815260200160078201548152505090508060c0015180156117f85750600073ffffffffffffffffffffffffffffffffffffffff16816000015173ffffffffffffffffffffffffffffffffffffffff1614155b1561180c5780600001519350505050611889565b601860008473ffffffffffffffffffffffffffffffffffffffff1673ffffffffffffffffffffffffffffffffffffffff16815260200190815260200160002060009054906101000a900473ffffffffffffffffffffffffffffffffffffffff169250818061187990614b0e565b92505050611678565b6000925050505b919050565b61189782610f25565b6118a0816136f3565b6118aa8383613816565b505050565b600f60009054906101000a900473ffffffffffffffffffffffffffffffffffffffff1681565b6118dd61384a565b73ffffffffffffffffffffffffffffffffffffffff168173ffffffffffffffffffffffffffffffffffffffff161461194a576040517f08c379a000000000000000000000000000000000000000000000000000000000815260040161194190614d62565b60405180910390fd5b6119548282613852565b5050565b601060009054906101000a900473ffffffffffffffffffffffffffffffffffffffff1681565b7f241ecf16d79d0f8dbfb92cbc07fe17840425976cf0667f022fe9877caa831b086119a8816136f3565b6000601660003373ffffffffffffffffffffffffffffffffffffffff1673ffffffffffffffffffffffffffffffffffffffff1681526020019081526020016000209050828160060160006101000a81548160ff02191690831515021790555050505050565b7f241ecf16d79d0f8dbfb92cbc07fe17840425976cf0667f022fe9877caa831b08611a37816136f3565b612710821115611a7c576040517f08c379a0000000000000000000000000000000000000000000000000000000008152600401611a7390614dce565b60405180910390fd5b816013819055505050565b600460009054906101000a900473ffffffffffffffffffffffffffffffffffffffff1681565b600560009054906101000a900473ffffffffffffffffffffffffffffffffffffffff1681565b600b5481565b600a5481565b600c5481565b60166020528060005260406000206000915090508060000160009054906101000a900473ffffffffffffffffffffffffffffffffffffffff16908060010154908060020154908060030154908060040154908060050154908060060160009054906101000a900460ff16908060070154905088565b600080601660003373ffffffffffffffffffffffffffffffffffffffff1673ffffffffffffffffffffffffffffffffffffffff168152602001908152602001600020604051806101000160405290816000820160009054906101000a900473ffffffffffffffffffffffffffffffffffffffff1673ffffffffffffffffffffffffffffffffffffffff1673ffffffffffffffffffffffffffffffffffffffff16815260200160018201548152602001600282015481526020016003820154815260200160048201548152602001600582015481526020016006820160009054906101000a900460ff1615151515815260200160078201548152505090508060a0015181608001511015611ca2576040517f08c379a0000000000000000000000000000000000000000000000000000000008152600401611c9990614e3a565b60405180910390fd5b8060a001518160800151611cb69190614e5a565b915050919050565b7f241ecf16d79d0f8dbfb92cbc07fe17840425976cf0667f022fe9877caa831b08611ce8816136f3565b601060009054906101000a900473ffffffffffffffffffffffffffffffffffffffff1673ffffffffffffffffffffffffffffffffffffffff1663095ea7b3600e60009054906101000a900473ffffffffffffffffffffffffffffffffffffffff16846040518363ffffffff1660e01b8152600401611d67929190614e8e565b6020604051808303816000875af1158015611d86573d6000803e3d6000fd5b505050506040513d601f19601f82011682018060405250810190611daa9190614ecc565b611db357600080fd5b5050565b7f241ecf16d79d0f8dbfb92cbc07fe17840425976cf0667f022fe9877caa831b08611de1816136f3565b600754821015611e26576040517f08c379a0000000000000000000000000000000000000000000000000000000008152600401611e1d90614f45565b60405180910390fd5b816007819055505050565b600080600260009054906101000a900473ffffffffffffffffffffffffffffffffffffffff1673ffffffffffffffffffffffffffffffffffffffff166384a748fa336040518263ffffffff1660e01b8152600401611e8f919061465b565b602060405180830381865afa158015611eac573d6000803e3d6000fd5b505050506040513d601f19601f82011682018060405250810190611ed09190614b6b565b905060008114158015611ee257504381115b91505090565b60135481565b6000611f15826001600086815260200190815260200160002061388690919063ffffffff16565b905092915050565b600080600084815260200190815260200160002060000160008373ffffffffffffffffffffffffffffffffffffffff1673ffffffffffffffffffffffffffffffffffffffff16815260200190815260200160002060009054906101000a900460ff16905092915050565b7f241ecf16d79d0f8dbfb92cbc07fe17840425976cf0667f022fe9877caa831b08611fb1816136f3565b6000600b5411611ff6576040517f08c379a0000000000000000000000000000000000000000000000000000000008152600401611fed90614fb1565b60405180910390fd5b81600b819055505050565b6000600260009054906101000a900473ffffffffffffffffffffffffffffffffffffffff1673ffffffffffffffffffffffffffffffffffffffff166384a748fa336040518263ffffffff1660e01b815260040161205e919061465b565b602060405180830381865afa15801561207b573d6000803e3d6000fd5b505050506040513d601f19601f8201168201806040525081019061209f9190614b6b565b9050600081146120e4576040517f08c379a00000000000000000000000000000000000000000000000000000000081526004016120db90615043565b60405180910390fd5b6000601860003373ffffffffffffffffffffffffffffffffffffffff1673ffffffffffffffffffffffffffffffffffffffff16815260200190815260200160002060009054906101000a900473ffffffffffffffffffffffffffffffffffffffff169050600073ffffffffffffffffffffffffffffffffffffffff168173ffffffffffffffffffffffffffffffffffffffff16146121b7576040517f08c379a00000000000000000000000000000000000000000000000000000000081526004016121ae906150af565b60405180910390fd5b6000601660008573ffffffffffffffffffffffffffffffffffffffff1673ffffffffffffffffffffffffffffffffffffffff168152602001908152602001600020604051806101000160405290816000820160009054906101000a900473ffffffffffffffffffffffffffffffffffffffff1673ffffffffffffffffffffffffffffffffffffffff1673ffffffffffffffffffffffffffffffffffffffff16815260200160018201548152602001600282015481526020016003820154815260200160048201548152602001600582015481526020016006820160009054906101000a900460ff16151515158152602001600782015481525050905060003390508160c0015180156122fa5750600073ffffffffffffffffffffffffffffffffffffffff16826000015173ffffffffffffffffffffffffffffffffffffffff1614155b1561230757849050612313565b61231085610ca3565b90505b6123643330600c54600460009054906101000a900473ffffffffffffffffffffffffffffffffffffffff1673ffffffffffffffffffffffffffffffffffffffff1661378d909392919063ffffffff16565b6000600d60018154811061237b5761237a614a44565b5b9060005260206000200154600d60008154811061239b5761239a614a44565b5b90600052602060002001546123b09190614e5a565b9050600061271082600c546123c591906150cf565b6123cf9190615140565b905060008111801561240e5750600073ffffffffffffffffffffffffffffffffffffffff168373ffffffffffffffffffffffffffffffffffffffff1614155b156124c6576124608382600460009054906101000a900473ffffffffffffffffffffffffffffffffffffffff1673ffffffffffffffffffffffffffffffffffffffff166137079092919063ffffffff16565b8273ffffffffffffffffffffffffffffffffffffffff163373ffffffffffffffffffffffffffffffffffffffff167fb9529e34b1212c2bb71b52662e66ec1ea5f50d0cd856dd1d6d26f05c994de399836040516124bd91906147fa565b60405180910390a35b6000612710600d6001815481106124e0576124df614a44565b5b9060005260206000200154600c546124f891906150cf565b6125029190615140565b90506000600267ffffffffffffffff81111561252157612520615171565b5b60405190808252806020026020018201604052801561254f5781602001602082028036833780820191505090505b509050601060009054906101000a900473ffffffffffffffffffffffffffffffffffffffff168160008151811061258957612588614a44565b5b602002602001019073ffffffffffffffffffffffffffffffffffffffff16908173ffffffffffffffffffffffffffffffffffffffff1681525050600f60009054906101000a900473ffffffffffffffffffffffffffffffffffffffff16816001815181106125fa576125f9614a44565b5b602002602001019073ffffffffffffffffffffffffffffffffffffffff16908173ffffffffffffffffffffffffffffffffffffffff1681525050600080601160009054906101000a900473ffffffffffffffffffffffffffffffffffffffff1673ffffffffffffffffffffffffffffffffffffffff16630902f1ac6040518163ffffffff1660e01b8152600401606060405180830381865afa1580156126a4573d6000803e3d6000fd5b505050506040513d601f19601f820116820180604052508101906126c89190615222565b50915091506000600e60009054906101000a900473ffffffffffffffffffffffffffffffffffffffff1673ffffffffffffffffffffffffffffffffffffffff1663054d50d48685856040518463ffffffff1660e01b815260040161272e939291906152a6565b602060405180830381865afa15801561274b573d6000803e3d6000fd5b505050506040513d601f19601f8201168201806040525081019061276f9190614b6b565b9050600e60009054906101000a900473ffffffffffffffffffffffffffffffffffffffff1673ffffffffffffffffffffffffffffffffffffffff166338ed1739866127106013546127106127c39190614e5a565b856127ce91906150cf565b6127d89190615140565b87601260009054906101000a900473ffffffffffffffffffffffffffffffffffffffff1661012c4261280a9190614c2a565b6040518663ffffffff1660e01b815260040161282a95949392919061539b565b6000604051808303816000875af1158015612849573d6000803e3d6000fd5b505050506040513d6000823e3d601f19601f820116820180604052508101906128729190615515565b506000600167ffffffffffffffff8111156128905761288f615171565b5b6040519080825280602002602001820160405280156128be5781602001602082028036833780820191505090505b50905033816000815181106128d6576128d5614a44565b5b602002602001019073ffffffffffffffffffffffffffffffffffffffff16908173ffffffffffffffffffffffffffffffffffffffff1681525050601460009054906101000a900473ffffffffffffffffffffffffffffffffffffffff1673ffffffffffffffffffffffffffffffffffffffff1663dd45530a6015546001846040518463ffffffff1660e01b815260040161297293929190615599565b600060405180830381600087803b15801561298c57600080fd5b505af11580156129a0573d6000803e3d6000fd5b505050508c601860003373ffffffffffffffffffffffffffffffffffffffff1673ffffffffffffffffffffffffffffffffffffffff16815260200190815260200160002060006101000a81548173ffffffffffffffffffffffffffffffffffffffff021916908373ffffffffffffffffffffffffffffffffffffffff1602179055508c73ffffffffffffffffffffffffffffffffffffffff163373ffffffffffffffffffffffffffffffffffffffff167faedcbe757d0af5671d08686487d4ddf9c86e82687daf8fd291edfe54b7e9707c60405160405180910390a350505050505050505050505050565b6000801b81565b60155481565b60186020528060005260406000206000915054906101000a900473ffffffffffffffffffffffffffffffffffffffff1681565b7f241ecf16d79d0f8dbfb92cbc07fe17840425976cf0667f022fe9877caa831b08612af5816136f3565b60008203612b38576040517f08c379a0000000000000000000000000000000000000000000000000000000008152600401612b2f90615623565b60405180910390fd5b816006819055505050565b7f241ecf16d79d0f8dbfb92cbc07fe17840425976cf0667f022fe9877caa831b08612b6d816136f3565b6000601660003373ffffffffffffffffffffffffffffffffffffffff1673ffffffffffffffffffffffffffffffffffffffff1681526020019081526020016000209050612bb983610bb6565b612bf8576040517f08c379a0000000000000000000000000000000000000000000000000000000008152600401612bef9061568f565b60405180910390fd5b828160020181905550336017600085815260200190815260200160002060006101000a81548173ffffffffffffffffffffffffffffffffffffffff021916908373ffffffffffffffffffffffffffffffffffffffff16021790555060006017600086815260200190815260200160002060006101000a81548173ffffffffffffffffffffffffffffffffffffffff021916908373ffffffffffffffffffffffffffffffffffffffff1602179055503373ffffffffffffffffffffffffffffffffffffffff167f312d1c0585c0c59c731daf4745aa860025af4dfeffbf9b6e24006bef83f5d34a84604051612cec91906147fa565b60405180910390a250505050565b600e60009054906101000a900473ffffffffffffffffffffffffffffffffffffffff1681565b7f241ecf16d79d0f8dbfb92cbc07fe17840425976cf0667f022fe9877caa831b08612d4a816136f3565b60008211612d8d576040517f08c379a0000000000000000000000000000000000000000000000000000000008152600401612d84906156fb565b60405180910390fd5b81600c819055505050565b6000601660003373ffffffffffffffffffffffffffffffffffffffff1673ffffffffffffffffffffffffffffffffffffffff16815260200190815260200160002090508060060160009054906101000a900460ff16612e2c576040517f08c379a0000000000000000000000000000000000000000000000000000000008152600401612e2390615767565b60405180910390fd5b600081600501548260040154612e429190614e5a565b905060008111612e87576040517f08c379a0000000000000000000000000000000000000000000000000000000008152600401612e7e906157f9565b60405180910390fd5b612ed43382600360009054906101000a900473ffffffffffffffffffffffffffffffffffffffff1673ffffffffffffffffffffffffffffffffffffffff166137079092919063ffffffff16565b816004015482600501819055504382600701819055503373ffffffffffffffffffffffffffffffffffffffff167fad71f93891cecc86a28a627d5495c28fabbd31cdd2e93851b16ce3421fdab2e5600360009054906101000a900473ffffffffffffffffffffffffffffffffffffffff1683604051612f54929190614e8e565b60405180910390a25050565b6000612f7d600160008481526020019081526020016000206138a0565b9050919050565b612f8d82610f25565b612f96816136f3565b612fa08383613852565b505050565b60176020528060005260406000206000915054906101000a900473ffffffffffffffffffffffffffffffffffffffff1681565b60065481565b600d8181548110612fee57600080fd5b906000526020600020016000915090505481565b7f241ecf16d79d0f8dbfb92cbc07fe17840425976cf0667f022fe9877caa831b0861302c816136f3565b6000821015613070576040517f08c379a000000000000000000000000000000000000000000000000000000000815260040161306790615865565b60405180910390fd5b816009819055505050565b7f241ecf16d79d0f8dbfb92cbc07fe17840425976cf0667f022fe9877caa831b0881565b6000600260009054906101000a900473ffffffffffffffffffffffffffffffffffffffff1673ffffffffffffffffffffffffffffffffffffffff166384a748fa336040518263ffffffff1660e01b81526004016130fc919061465b565b602060405180830381865afa158015613119573d6000803e3d6000fd5b505050506040513d601f19601f8201168201806040525081019061313d9190614b6b565b9050600081141580156131505750438110155b61318f576040517f08c379a000000000000000000000000000000000000000000000000000000000815260040161318690614c0a565b60405180910390fd5b6000601860003373ffffffffffffffffffffffffffffffffffffffff1673ffffffffffffffffffffffffffffffffffffffff16815260200190815260200160002060009054906101000a900473ffffffffffffffffffffffffffffffffffffffff169050600073ffffffffffffffffffffffffffffffffffffffff168173ffffffffffffffffffffffffffffffffffffffff1603613262576040517f08c379a0000000000000000000000000000000000000000000000000000000008152600401613259906158d1565b60405180910390fd5b600061326d33611610565b90506000601660008373ffffffffffffffffffffffffffffffffffffffff1673ffffffffffffffffffffffffffffffffffffffff16815260200190815260200160002090508060060160009054906101000a900460ff1661332b578173ffffffffffffffffffffffffffffffffffffffff163373ffffffffffffffffffffffffffffffffffffffff167fb5566e1d79eb0877b17aa59230fca5bee7b52a5732a23971d30fe9e7c8f3562260405160405180910390a3505050506133c4565b600b548160040160008282546133419190614c2a565b92505081905550806003015481600401541061336557806003015481600401819055505b8273ffffffffffffffffffffffffffffffffffffffff163373ffffffffffffffffffffffffffffffffffffffff167fb5566e1d79eb0877b17aa59230fca5bee7b52a5732a23971d30fe9e7c8f3562260405160405180910390a3505050505b565b7f241ecf16d79d0f8dbfb92cbc07fe17840425976cf0667f022fe9877caa831b086133f0816136f3565b81600560006101000a81548173ffffffffffffffffffffffffffffffffffffffff021916908373ffffffffffffffffffffffffffffffffffffffff1602179055505050565b60095481565b601460009054906101000a900473ffffffffffffffffffffffffffffffffffffffff1681565b600360009054906101000a900473ffffffffffffffffffffffffffffffffffffffff1681565b6000601660003373ffffffffffffffffffffffffffffffffffffffff1673ffffffffffffffffffffffffffffffffffffffff16815260200190815260200160002090508060060160009054906101000a900460ff1661351b576040517f08c379a00000000000000000000000000000000000000000000000000000000081526004016135129061593d565b60405180910390fd5b6000816001015411613562576040517f08c379a0000000000000000000000000000000000000000000000000000000008152600401613559906159a9565b60405180910390fd5b6000816001018190555060008160060160006101000a81548160ff0219169083151502179055506135da338260010154600460009054906101000a900473ffffffffffffffffffffffffffffffffffffffff1673ffffffffffffffffffffffffffffffffffffffff166137079092919063ffffffff16565b8060000160009054906101000a900473ffffffffffffffffffffffffffffffffffffffff1673ffffffffffffffffffffffffffffffffffffffff167ff6569b19f34cb503c5354741f7428b6de87b07660a73efa701eb72e78548b2f9826002015460405161364891906147fa565b60405180910390a250565b601160009054906101000a900473ffffffffffffffffffffffffffffffffffffffff1681565b60007f7965db0b000000000000000000000000000000000000000000000000000000007bffffffffffffffffffffffffffffffffffffffffffffffffffffffff1916827bffffffffffffffffffffffffffffffffffffffffffffffffffffffff191614806136ec57506136eb826138b5565b5b9050919050565b613704816136ff61384a565b61391f565b50565b6137888363a9059cbb60e01b8484604051602401613726929190614e8e565b604051602081830303815290604052907bffffffffffffffffffffffffffffffffffffffffffffffffffffffff19166020820180517bffffffffffffffffffffffffffffffffffffffffffffffffffffffff83818316178352505050506139a4565b505050565b613810846323b872dd60e01b8585856040516024016137ae939291906159c9565b604051602081830303815290604052907bffffffffffffffffffffffffffffffffffffffffffffffffffffffff19166020820180517bffffffffffffffffffffffffffffffffffffffffffffffffffffffff83818316178352505050506139a4565b50505050565b6138208282613a6c565b6138458160016000858152602001908152602001600020613b4c90919063ffffffff16565b505050565b600033905090565b61385c8282613b7c565b6138818160016000858152602001908152602001600020613c5d90919063ffffffff16565b505050565b60006138958360000183613c8d565b60001c905092915050565b60006138ae82600001613cb8565b9050919050565b60007f01ffc9a7000000000000000000000000000000000000000000000000000000007bffffffffffffffffffffffffffffffffffffffffffffffffffffffff1916827bffffffffffffffffffffffffffffffffffffffffffffffffffffffff1916149050919050565b6139298282611f1d565b6139a05761393681613cc9565b6139448360001c6020613cf6565b604051602001613955929190615b09565b6040516020818303038152906040526040517f08c379a00000000000000000000000000000000000000000000000000000000081526004016139979190615b7c565b60405180910390fd5b5050565b6000613a06826040518060400160405280602081526020017f5361666545524332303a206c6f772d6c6576656c2063616c6c206661696c65648152508573ffffffffffffffffffffffffffffffffffffffff16613f329092919063ffffffff16565b9050600081511480613a28575080806020019051810190613a279190614ecc565b5b613a67576040517f08c379a0000000000000000000000000000000000000000000000000000000008152600401613a5e90615c10565b60405180910390fd5b505050565b613a768282611f1d565b613b4857600160008084815260200190815260200160002060000160008373ffffffffffffffffffffffffffffffffffffffff1673ffffffffffffffffffffffffffffffffffffffff16815260200190815260200160002060006101000a81548160ff021916908315150217905550613aed61384a565b73ffffffffffffffffffffffffffffffffffffffff168173ffffffffffffffffffffffffffffffffffffffff16837f2f8788117e7eff1d82e926ec794901d17c78024a50270940304540a733656f0d60405160405180910390a45b5050565b6000613b74836000018373ffffffffffffffffffffffffffffffffffffffff1660001b613f4a565b905092915050565b613b868282611f1d565b15613c5957600080600084815260200190815260200160002060000160008373ffffffffffffffffffffffffffffffffffffffff1673ffffffffffffffffffffffffffffffffffffffff16815260200190815260200160002060006101000a81548160ff021916908315150217905550613bfe61384a565b73ffffffffffffffffffffffffffffffffffffffff168173ffffffffffffffffffffffffffffffffffffffff16837ff6391f5c32d9c69d2a47ea670b442974b53935d1edc7fd64eb21e047a839171b60405160405180910390a45b5050565b6000613c85836000018373ffffffffffffffffffffffffffffffffffffffff1660001b613fba565b905092915050565b6000826000018281548110613ca557613ca4614a44565b5b9060005260206000200154905092915050565b600081600001805490509050919050565b6060613cef8273ffffffffffffffffffffffffffffffffffffffff16601460ff16613cf6565b9050919050565b606060006002836002613d0991906150cf565b613d139190614c2a565b67ffffffffffffffff811115613d2c57613d2b615171565b5b6040519080825280601f01601f191660200182016040528015613d5e5781602001600182028036833780820191505090505b5090507f300000000000000000000000000000000000000000000000000000000000000081600081518110613d9657613d95614a44565b5b60200101907effffffffffffffffffffffffffffffffffffffffffffffffffffffffffffff1916908160001a9053507f780000000000000000000000000000000000000000000000000000000000000081600181518110613dfa57613df9614a44565b5b60200101907effffffffffffffffffffffffffffffffffffffffffffffffffffffffffffff1916908160001a90535060006001846002613e3a91906150cf565b613e449190614c2a565b90505b6001811115613ee4577f3031323334353637383961626364656600000000000000000000000000000000600f861660108110613e8657613e85614a44565b5b1a60f81b828281518110613e9d57613e9c614a44565b5b60200101907effffffffffffffffffffffffffffffffffffffffffffffffffffffffffffff1916908160001a905350600485901c945080613edd90615c30565b9050613e47565b5060008414613f28576040517f08c379a0000000000000000000000000000000000000000000000000000000008152600401613f1f90615ca5565b60405180910390fd5b8091505092915050565b6060613f4184846000856140ce565b90509392505050565b6000613f56838361419b565b613faf578260000182908060018154018082558091505060019003906000526020600020016000909190919091505582600001805490508360010160008481526020019081526020016000208190555060019050613fb4565b600090505b92915050565b600080836001016000848152602001908152602001600020549050600081146140c2576000600182613fec9190614e5a565b90506000600186600001805490506140049190614e5a565b905081811461407357600086600001828154811061402557614024614a44565b5b906000526020600020015490508087600001848154811061404957614048614a44565b5b90600052602060002001819055508387600101600083815260200190815260200160002081905550505b8560000180548061408757614086615cc5565b5b6001900381819060005260206000200160009055905585600101600086815260200190815260200160002060009055600193505050506140c8565b60009150505b92915050565b606082471015614113576040517f08c379a000000000000000000000000000000000000000000000000000000000815260040161410a90615d66565b60405180910390fd5b6000808673ffffffffffffffffffffffffffffffffffffffff16858760405161413c9190615dcd565b60006040518083038185875af1925050503d8060008114614179576040519150601f19603f3d011682016040523d82523d6000602084013e61417e565b606091505b509150915061418f878383876141be565b92505050949350505050565b600080836001016000848152602001908152602001600020541415905092915050565b60608315614220576000835103614218576141d885614233565b614217576040517f08c379a000000000000000000000000000000000000000000000000000000000815260040161420e90615e30565b60405180910390fd5b5b82905061422b565b61422a8383614256565b5b949350505050565b6000808273ffffffffffffffffffffffffffffffffffffffff163b119050919050565b6000825111156142695781518083602001fd5b806040517f08c379a000000000000000000000000000000000000000000000000000000000815260040161429d9190615b7c565b60405180910390fd5b8280548282559060005260206000209081019282156142e2579160200282015b828111156142e15782358255916020019190600101906142c6565b5b5090506142ef91906142f3565b5090565b5b8082111561430c5760008160009055506001016142f4565b5090565b6000604051905090565b600080fd5b600080fd5b60007fffffffff0000000000000000000000000000000000000000000000000000000082169050919050565b61435981614324565b811461436457600080fd5b50565b60008135905061437681614350565b92915050565b6000602082840312156143925761439161431a565b5b60006143a084828501614367565b91505092915050565b60008115159050919050565b6143be816143a9565b82525050565b60006020820190506143d960008301846143b5565b92915050565b600080fd5b600080fd5b600080fd5b60008083601f840112614404576144036143df565b5b8235905067ffffffffffffffff811115614421576144206143e4565b5b60208301915083602082028301111561443d5761443c6143e9565b5b9250929050565b6000806020838503121561445b5761445a61431a565b5b600083013567ffffffffffffffff8111156144795761447861431f565b5b614485858286016143ee565b92509250509250929050565b6000819050919050565b6144a481614491565b81146144af57600080fd5b50565b6000813590506144c18161449b565b92915050565b6000602082840312156144dd576144dc61431a565b5b60006144eb848285016144b2565b91505092915050565b600073ffffffffffffffffffffffffffffffffffffffff82169050919050565b600061451f826144f4565b9050919050565b61452f81614514565b811461453a57600080fd5b50565b60008135905061454c81614526565b92915050565b60008060006060848603121561456b5761456a61431a565b5b60006145798682870161453d565b935050602061458a8682870161453d565b925050604061459b868287016144b2565b9150509250925092565b6000819050919050565b60006145ca6145c56145c0846144f4565b6145a5565b6144f4565b9050919050565b60006145dc826145af565b9050919050565b60006145ee826145d1565b9050919050565b6145fe816145e3565b82525050565b600060208201905061461960008301846145f5565b92915050565b6000602082840312156146355761463461431a565b5b60006146438482850161453d565b91505092915050565b61465581614514565b82525050565b6000602082019050614670600083018461464c565b92915050565b6000819050919050565b61468981614676565b811461469457600080fd5b50565b6000813590506146a681614680565b92915050565b6000602082840312156146c2576146c161431a565b5b60006146d084828501614697565b91505092915050565b6146e281614676565b82525050565b60006020820190506146fd60008301846146d9565b92915050565b6000806040838503121561471a5761471961431a565b5b600061472885828601614697565b92505060206147398582860161453d565b9150509250929050565b600061474e826145d1565b9050919050565b61475e81614743565b82525050565b60006020820190506147796000830184614755565b92915050565b614788816143a9565b811461479357600080fd5b50565b6000813590506147a58161477f565b92915050565b600080604083850312156147c2576147c161431a565b5b60006147d08582860161453d565b92505060206147e185828601614796565b9150509250929050565b6147f481614491565b82525050565b600060208201905061480f60008301846147eb565b92915050565b60006101008201905061482b600083018b61464c565b614838602083018a6147eb565b61484560408301896147eb565b61485260608301886147eb565b61485f60808301876147eb565b61486c60a08301866147eb565b61487960c08301856143b5565b61488660e08301846147eb565b9998505050505050505050565b600080604083850312156148aa576148a961431a565b5b60006148b885828601614697565b92505060206148c9858286016144b2565b9150509250929050565b600080604083850312156148ea576148e961431a565b5b60006148f8858286016144b2565b9250506020614909858286016144b2565b9150509250929050565b600061491e826145d1565b9050919050565b61492e81614913565b82525050565b60006020820190506149496000830184614925565b92915050565b600061495a826145d1565b9050919050565b61496a8161494f565b82525050565b60006020820190506149856000830184614961565b92915050565b6000614996826145d1565b9050919050565b6149a68161498b565b82525050565b60006020820190506149c1600083018461499d565b92915050565b600082825260208201905092915050565b7f617272206c656e677468206d757374203d203200000000000000000000000000600082015250565b6000614a0e6013836149c7565b9150614a19826149d8565b602082019050919050565b60006020820190508181036000830152614a3d81614a01565b9050919050565b7f4e487b7100000000000000000000000000000000000000000000000000000000600052603260045260246000fd5b7f706172616d73206572726f720000000000000000000000000000000000000000600082015250565b6000614aa9600c836149c7565b9150614ab482614a73565b602082019050919050565b60006020820190508181036000830152614ad881614a9c565b9050919050565b7f4e487b7100000000000000000000000000000000000000000000000000000000600052601160045260246000fd5b6000614b1982614491565b91507fffffffffffffffffffffffffffffffffffffffffffffffffffffffffffffffff8203614b4b57614b4a614adf565b5b600182019050919050565b600081519050614b658161449b565b92915050565b600060208284031215614b8157614b8061431a565b5b6000614b8f84828501614b56565b91505092915050565b7f796f75206d757374206265206d696e696e6720696e2074686520506c616e745060008201527f6f6f6c2066697273742100000000000000000000000000000000000000000000602082015250565b6000614bf4602a836149c7565b9150614bff82614b98565b604082019050919050565b60006020820190508181036000830152614c2381614be7565b9050919050565b6000614c3582614491565b9150614c4083614491565b9250828201905080821115614c5857614c57614adf565b5b92915050565b7f616464726573732068617320616c7265616479206265656e2061206c6561646560008201527f7200000000000000000000000000000000000000000000000000000000000000602082015250565b6000614cba6021836149c7565b9150614cc582614c5e565b604082019050919050565b60006020820190508181036000830152614ce981614cad565b9050919050565b7f416363657373436f6e74726f6c3a2063616e206f6e6c792072656e6f756e636560008201527f20726f6c657320666f722073656c660000000000000000000000000000000000602082015250565b6000614d4c602f836149c7565b9150614d5782614cf0565b604082019050919050565b60006020820190508181036000830152614d7b81614d3f565b9050919050565b7f6d6178536c697070616765206d757374203c3d20313030303000000000000000600082015250565b6000614db86019836149c7565b9150614dc382614d82565b602082019050919050565b60006020820190508181036000830152614de781614dab565b9050919050565b7f736f6d657468696e672077726f6e670000000000000000000000000000000000600082015250565b6000614e24600f836149c7565b9150614e2f82614dee565b602082019050919050565b60006020820190508181036000830152614e5381614e17565b9050919050565b6000614e6582614491565b9150614e7083614491565b9250828203905081811115614e8857614e87614adf565b5b92915050565b6000604082019050614ea3600083018561464c565b614eb060208301846147eb565b9392505050565b600081519050614ec68161477f565b92915050565b600060208284031215614ee257614ee161431a565b5b6000614ef084828501614eb7565b91505092915050565b7f6d757374203e3d2063757272656e744c65616465724944000000000000000000600082015250565b6000614f2f6017836149c7565b9150614f3a82614ef9565b602082019050919050565b60006020820190508181036000830152614f5e81614f22565b9050919050565b7f6f6e636542696e64526577617264536374206d757374203e2030000000000000600082015250565b6000614f9b601a836149c7565b9150614fa682614f65565b602082019050919050565b60006020820190508181036000830152614fca81614f8e565b9050919050565b7f796f7520616c7265616479206265206d696e696e6720696e2074686520506c6160008201527f6e74506f6f6c0000000000000000000000000000000000000000000000000000602082015250565b600061502d6026836149c7565b915061503882614fd1565b604082019050919050565b6000602082019050818103600083015261505c81615020565b9050919050565b7f796f75206861766520616c72656164792062696e6420696e7669746572000000600082015250565b6000615099601d836149c7565b91506150a482615063565b602082019050919050565b600060208201905081810360008301526150c88161508c565b9050919050565b60006150da82614491565b91506150e583614491565b92508282026150f381614491565b9150828204841483151761510a57615109614adf565b5b5092915050565b7f4e487b7100000000000000000000000000000000000000000000000000000000600052601260045260246000fd5b600061514b82614491565b915061515683614491565b92508261516657615165615111565b5b828204905092915050565b7f4e487b7100000000000000000000000000000000000000000000000000000000600052604160045260246000fd5b60006dffffffffffffffffffffffffffff82169050919050565b6151c3816151a0565b81146151ce57600080fd5b50565b6000815190506151e0816151ba565b92915050565b600063ffffffff82169050919050565b6151ff816151e6565b811461520a57600080fd5b50565b60008151905061521c816151f6565b92915050565b60008060006060848603121561523b5761523a61431a565b5b6000615249868287016151d1565b935050602061525a868287016151d1565b925050604061526b8682870161520d565b9150509250925092565b600061529061528b615286846151a0565b6145a5565b614491565b9050919050565b6152a081615275565b82525050565b60006060820190506152bb60008301866147eb565b6152c86020830185615297565b6152d56040830184615297565b949350505050565b600081519050919050565b600082825260208201905092915050565b6000819050602082019050919050565b61531281614514565b82525050565b60006153248383615309565b60208301905092915050565b6000602082019050919050565b6000615348826152dd565b61535281856152e8565b935061535d836152f9565b8060005b8381101561538e5781516153758882615318565b975061538083615330565b925050600181019050615361565b5085935050505092915050565b600060a0820190506153b060008301886147eb565b6153bd60208301876147eb565b81810360408301526153cf818661533d565b90506153de606083018561464c565b6153eb60808301846147eb565b9695505050505050565b6000601f19601f8301169050919050565b61540f826153f5565b810181811067ffffffffffffffff8211171561542e5761542d615171565b5b80604052505050565b6000615441614310565b905061544d8282615406565b919050565b600067ffffffffffffffff82111561546d5761546c615171565b5b602082029050602081019050919050565b600061549161548c84615452565b615437565b905080838252602082019050602084028301858111156154b4576154b36143e9565b5b835b818110156154dd57806154c98882614b56565b8452602084019350506020810190506154b6565b5050509392505050565b600082601f8301126154fc576154fb6143df565b5b815161550c84826020860161547e565b91505092915050565b60006020828403121561552b5761552a61431a565b5b600082015167ffffffffffffffff8111156155495761554861431f565b5b615555848285016154e7565b91505092915050565b6000819050919050565b600061558361557e6155798461555e565b6145a5565b614491565b9050919050565b61559381615568565b82525050565b60006060820190506155ae60008301866147eb565b6155bb602083018561558a565b81810360408301526155cd818461533d565b9050949350505050565b7f63616e2774207365742072657761726443616c63526174696f203d2030000000600082015250565b600061560d601d836149c7565b9150615618826155d7565b602082019050919050565b6000602082019050818103600083015261563c81615600565b9050919050565b7f5f6e657749642069732065786973742100000000000000000000000000000000600082015250565b60006156796010836149c7565b915061568482615643565b602082019050919050565b600060208201905081810360008301526156a88161566c565b9050919050565b7f62696e6455736474416d6f756e74206d757374203e2030000000000000000000600082015250565b60006156e56017836149c7565b91506156f0826156af565b602082019050919050565b60006020820190508181036000830152615714816156d8565b9050919050565b7f6c65616465722069732065787069726564206e6f770000000000000000000000600082015250565b60006157516015836149c7565b915061575c8261571b565b602082019050919050565b6000602082019050818103600083015261578081615744565b9050919050565b7f6c65616465722068617665206e6f207265776172642063616e2077697468647260008201527f6177210000000000000000000000000000000000000000000000000000000000602082015250565b60006157e36023836149c7565b91506157ee82615787565b604082019050919050565b60006020820190508181036000830152615812816157d6565b9050919050565b7f7374616b65416d6f756e74206d757374203e3d20300000000000000000000000600082015250565b600061584f6015836149c7565b915061585a82615819565b602082019050919050565b6000602082019050818103600083015261587e81615842565b9050919050565b7f796f752068617665206e6f742062696e6420696e766974657200000000000000600082015250565b60006158bb6019836149c7565b91506158c682615885565b602082019050919050565b600060208201905081810360008301526158ea816158ae565b9050919050565b7f796f7572206566666563742069732066616c7365000000000000000000000000600082015250565b60006159276014836149c7565b9150615932826158f1565b602082019050919050565b600060208201905081810360008301526159568161591a565b9050919050565b7f796f7572207374616b656420616d6f756e74206d757374203e20300000000000600082015250565b6000615993601b836149c7565b915061599e8261595d565b602082019050919050565b600060208201905081810360008301526159c281615986565b9050919050565b60006060820190506159de600083018661464c565b6159eb602083018561464c565b6159f860408301846147eb565b949350505050565b600081905092915050565b7f416363657373436f6e74726f6c3a206163636f756e7420000000000000000000600082015250565b6000615a41601783615a00565b9150615a4c82615a0b565b601782019050919050565b600081519050919050565b60005b83811015615a80578082015181840152602081019050615a65565b60008484015250505050565b6000615a9782615a57565b615aa18185615a00565b9350615ab1818560208601615a62565b80840191505092915050565b7f206973206d697373696e6720726f6c6520000000000000000000000000000000600082015250565b6000615af3601183615a00565b9150615afe82615abd565b601182019050919050565b6000615b1482615a34565b9150615b208285615a8c565b9150615b2b82615ae6565b9150615b378284615a8c565b91508190509392505050565b6000615b4e82615a57565b615b5881856149c7565b9350615b68818560208601615a62565b615b71816153f5565b840191505092915050565b60006020820190508181036000830152615b968184615b43565b905092915050565b7f5361666545524332303a204552433230206f7065726174696f6e20646964206e60008201527f6f74207375636365656400000000000000000000000000000000000000000000602082015250565b6000615bfa602a836149c7565b9150615c0582615b9e565b604082019050919050565b60006020820190508181036000830152615c2981615bed565b9050919050565b6000615c3b82614491565b915060008203615c4e57615c4d614adf565b5b600182039050919050565b7f537472696e67733a20686578206c656e67746820696e73756666696369656e74600082015250565b6000615c8f6020836149c7565b9150615c9a82615c59565b602082019050919050565b60006020820190508181036000830152615cbe81615c82565b9050919050565b7f4e487b7100000000000000000000000000000000000000000000000000000000600052603160045260246000fd5b7f416464726573733a20696e73756666696369656e742062616c616e636520666f60008201527f722063616c6c0000000000000000000000000000000000000000000000000000602082015250565b6000615d506026836149c7565b9150615d5b82615cf4565b604082019050919050565b60006020820190508181036000830152615d7f81615d43565b9050919050565b600081519050919050565b600081905092915050565b6000615da782615d86565b615db18185615d91565b9350615dc1818560208601615a62565b80840191505092915050565b6000615dd98284615d9c565b915081905092915050565b7f416464726573733a2063616c6c20746f206e6f6e2d636f6e7472616374000000600082015250565b6000615e1a601d836149c7565b9150615e2582615de4565b602082019050919050565b60006020820190508181036000830152615e4981615e0d565b905091905056fea26469706673582212203c001948f18e8ecf287def44a980e3c88cd9571daee859d178fc0dd4e30b18e064736f6c63430008180033",
  "linkReferences": {},
  "deployedLinkReferences": {}
}