{
  "_format": "hh-sol-artifact-1",
  "contractName": "TeamDao",
  "sourceName": "contracts/teamDao/teamDao.sol",
  "abi": [
    {
      "inputs": [],
      "stateMutability": "nonpayable",
      "type": "constructor"
    },
    {
      "anonymous": false,
      "inputs": [
        {
          "indexed": true,
          "internalType": "address",
          "name": "_user",
          "type": "address"
        },
        {
          "indexed": true,
          "internalType": "address",
          "name": "_inviter",
          "type": "address"
        }
      ],
      "name": "ActiveLeader",
      "type": "event"
    },
    {
      "anonymous": false,
      "inputs": [
        {
          "indexed": true,
          "internalType": "address",
          "name": "_user",
          "type": "address"
        },
        {
          "indexed": true,
          "internalType": "address",
          "name": "_inviter",
          "type": "address"
        }
      ],
      "name": "BindInviter",
      "type": "event"
    },
    {
      "anonymous": false,
      "inputs": [
        {
          "indexed": true,
          "internalType": "address",
          "name": "_user",
          "type": "address"
        },
        {
          "indexed": true,
          "internalType": "address",
          "name": "_inviter",
          "type": "address"
        },
        {
          "indexed": false,
          "internalType": "uint256",
          "name": "_amount",
          "type": "uint256"
        }
      ],
      "name": "ContributeInviteEarn",
      "type": "event"
    },
    {
      "anonymous": false,
      "inputs": [
        {
          "indexed": true,
          "internalType": "address",
          "name": "_leader",
          "type": "address"
        },
        {
          "indexed": false,
          "internalType": "uint256",
          "name": "_id",
          "type": "uint256"
        }
      ],
      "name": "QuitRegisterLeader",
      "type": "event"
    },
    {
      "anonymous": false,
      "inputs": [
        {
          "indexed": true,
          "internalType": "address",
          "name": "_leader",
          "type": "address"
        },
        {
          "indexed": false,
          "internalType": "uint256",
          "name": "_id",
          "type": "uint256"
        }
      ],
      "name": "RegisterLeader",
      "type": "event"
    },
    {
      "anonymous": false,
      "inputs": [
        {
          "indexed": true,
          "internalType": "bytes32",
          "name": "role",
          "type": "bytes32"
        },
        {
          "indexed": true,
          "internalType": "bytes32",
          "name": "previousAdminRole",
          "type": "bytes32"
        },
        {
          "indexed": true,
          "internalType": "bytes32",
          "name": "newAdminRole",
          "type": "bytes32"
        }
      ],
      "name": "RoleAdminChanged",
      "type": "event"
    },
    {
      "anonymous": false,
      "inputs": [
        {
          "indexed": true,
          "internalType": "bytes32",
          "name": "role",
          "type": "bytes32"
        },
        {
          "indexed": true,
          "internalType": "address",
          "name": "account",
          "type": "address"
        },
        {
          "indexed": true,
          "internalType": "address",
          "name": "sender",
          "type": "address"
        }
      ],
      "name": "RoleGranted",
      "type": "event"
    },
    {
      "anonymous": false,
      "inputs": [
        {
          "indexed": true,
          "internalType": "bytes32",
          "name": "role",
          "type": "bytes32"
        },
        {
          "indexed": true,
          "internalType": "address",
          "name": "account",
          "type": "address"
        },
        {
          "indexed": true,
          "internalType": "address",
          "name": "sender",
          "type": "address"
        }
      ],
      "name": "RoleRevoked",
      "type": "event"
    },
    {
      "anonymous": false,
      "inputs": [
        {
          "indexed": true,
          "internalType": "address",
          "name": "_leader",
          "type": "address"
        }
      ],
      "name": "UpdateLeaderEffectFailed",
      "type": "event"
    },
    {
      "anonymous": false,
      "inputs": [
        {
          "indexed": true,
          "internalType": "address",
          "name": "_leader",
          "type": "address"
        },
        {
          "indexed": false,
          "internalType": "uint256",
          "name": "_id",
          "type": "uint256"
        }
      ],
      "name": "UpdateLeaderId",
      "type": "event"
    },
    {
      "anonymous": false,
      "inputs": [
        {
          "indexed": true,
          "internalType": "address",
          "name": "_user",
          "type": "address"
        },
        {
          "indexed": false,
          "internalType": "address",
          "name": "_token",
          "type": "address"
        },
        {
          "indexed": false,
          "internalType": "uint256",
          "name": "_amount",
          "type": "uint256"
        }
      ],
      "name": "WithdrawReward",
      "type": "event"
    },
    {
      "inputs": [],
      "name": "DEFAULT_ADMIN_ROLE",
      "outputs": [
        {
          "internalType": "bytes32",
          "name": "",
          "type": "bytes32"
        }
      ],
      "stateMutability": "view",
      "type": "function"
    },
    {
      "inputs": [],
      "name": "MANAGER_ROLE",
      "outputs": [
        {
          "internalType": "bytes32",
          "name": "",
          "type": "bytes32"
        }
      ],
      "stateMutability": "view",
      "type": "function"
    },
    {
      "inputs": [],
      "name": "ScpShop",
      "outputs": [
        {
          "internalType": "contract SCPBox2",
          "name": "",
          "type": "address"
        }
      ],
      "stateMutability": "view",
      "type": "function"
    },
    {
      "inputs": [
        {
          "internalType": "address",
          "name": "_leader",
          "type": "address"
        }
      ],
      "name": "activateInviter",
      "outputs": [],
      "stateMutability": "nonpayable",
      "type": "function"
    },
    {
      "inputs": [
        {
          "internalType": "address",
          "name": "",
          "type": "address"
        }
      ],
      "name": "activelist",
      "outputs": [
        {
          "internalType": "bool",
          "name": "",
          "type": "bool"
        }
      ],
      "stateMutability": "view",
      "type": "function"
    },
    {
      "inputs": [
        {
          "internalType": "uint256",
          "name": "",
          "type": "uint256"
        }
      ],
      "name": "bindArr",
      "outputs": [
        {
          "internalType": "uint256",
          "name": "",
          "type": "uint256"
        }
      ],
      "stateMutability": "view",
      "type": "function"
    },
    {
      "inputs": [
        {
          "internalType": "address",
          "name": "_inviter",
          "type": "address"
        }
      ],
      "name": "bindInviter",
      "outputs": [],
      "stateMutability": "nonpayable",
      "type": "function"
    },
    {
      "inputs": [],
      "name": "bindUsdtAmount",
      "outputs": [
        {
          "internalType": "uint256",
          "name": "",
          "type": "uint256"
        }
      ],
      "stateMutability": "view",
      "type": "function"
    },
    {
      "inputs": [],
      "name": "busd",
      "outputs": [
        {
          "internalType": "contract IERC20",
          "name": "",
          "type": "address"
        }
      ],
      "stateMutability": "view",
      "type": "function"
    },
    {
      "inputs": [
        {
          "internalType": "address",
          "name": "tokenAddr",
          "type": "address"
        },
        {
          "internalType": "address",
          "name": "user",
          "type": "address"
        },
        {
          "internalType": "uint256",
          "name": "amount",
          "type": "uint256"
        }
      ],
      "name": "claimToken",
      "outputs": [],
      "stateMutability": "nonpayable",
      "type": "function"
    },
    {
      "inputs": [],
      "name": "currentBoxType",
      "outputs": [
        {
          "internalType": "uint256",
          "name": "",
          "type": "uint256"
        }
      ],
      "stateMutability": "view",
      "type": "function"
    },
    {
      "inputs": [
        {
          "internalType": "address",
          "name": "_user",
          "type": "address"
        }
      ],
      "name": "getInviterTeamLeader",
      "outputs": [
        {
          "internalType": "address",
          "name": "",
          "type": "address"
        }
      ],
      "stateMutability": "view",
      "type": "function"
    },
    {
      "inputs": [
        {
          "internalType": "bytes32",
          "name": "role",
          "type": "bytes32"
        }
      ],
      "name": "getRoleAdmin",
      "outputs": [
        {
          "internalType": "bytes32",
          "name": "",
          "type": "bytes32"
        }
      ],
      "stateMutability": "view",
      "type": "function"
    },
    {
      "inputs": [
        {
          "internalType": "bytes32",
          "name": "role",
          "type": "bytes32"
        },
        {
          "internalType": "uint256",
          "name": "index",
          "type": "uint256"
        }
      ],
      "name": "getRoleMember",
      "outputs": [
        {
          "internalType": "address",
          "name": "",
          "type": "address"
        }
      ],
      "stateMutability": "view",
      "type": "function"
    },
    {
      "inputs": [
        {
          "internalType": "bytes32",
          "name": "role",
          "type": "bytes32"
        }
      ],
      "name": "getRoleMemberCount",
      "outputs": [
        {
          "internalType": "uint256",
          "name": "",
          "type": "uint256"
        }
      ],
      "stateMutability": "view",
      "type": "function"
    },
    {
      "inputs": [
        {
          "internalType": "address",
          "name": "_user",
          "type": "address"
        }
      ],
      "name": "getTeamLeader",
      "outputs": [
        {
          "internalType": "address",
          "name": "",
          "type": "address"
        }
      ],
      "stateMutability": "view",
      "type": "function"
    },
    {
      "inputs": [
        {
          "internalType": "bytes32",
          "name": "role",
          "type": "bytes32"
        },
        {
          "internalType": "address",
          "name": "account",
          "type": "address"
        }
      ],
      "name": "grantRole",
      "outputs": [],
      "stateMutability": "nonpayable",
      "type": "function"
    },
    {
      "inputs": [
        {
          "internalType": "bytes32",
          "name": "role",
          "type": "bytes32"
        },
        {
          "internalType": "address",
          "name": "account",
          "type": "address"
        }
      ],
      "name": "hasRole",
      "outputs": [
        {
          "internalType": "bool",
          "name": "",
          "type": "bool"
        }
      ],
      "stateMutability": "view",
      "type": "function"
    },
    {
      "inputs": [],
      "name": "initLimitReward",
      "outputs": [
        {
          "internalType": "uint256",
          "name": "",
          "type": "uint256"
        }
      ],
      "stateMutability": "view",
      "type": "function"
    },
    {
      "inputs": [
        {
          "internalType": "uint256",
          "name": "_id",
          "type": "uint256"
        }
      ],
      "name": "isLeaderIdExist",
      "outputs": [
        {
          "internalType": "bool",
          "name": "",
          "type": "bool"
        }
      ],
      "stateMutability": "nonpayable",
      "type": "function"
    },
    {
      "inputs": [
        {
          "internalType": "address",
          "name": "",
          "type": "address"
        }
      ],
      "name": "leaders",
      "outputs": [
        {
          "internalType": "address",
          "name": "leader",
          "type": "address"
        },
        {
          "internalType": "uint256",
          "name": "staked",
          "type": "uint256"
        },
        {
          "internalType": "uint256",
          "name": "leaderId",
          "type": "uint256"
        },
        {
          "internalType": "uint256",
          "name": "limitRewardSCT",
          "type": "uint256"
        },
        {
          "internalType": "uint256",
          "name": "unlockedRewardSCT",
          "type": "uint256"
        },
        {
          "internalType": "uint256",
          "name": "withdrawedRewardSCT",
          "type": "uint256"
        },
        {
          "internalType": "bool",
          "name": "effect",
          "type": "bool"
        },
        {
          "internalType": "uint256",
          "name": "lastWithdrawblock",
          "type": "uint256"
        }
      ],
      "stateMutability": "view",
      "type": "function"
    },
    {
      "inputs": [
        {
          "internalType": "uint256",
          "name": "",
          "type": "uint256"
        }
      ],
      "name": "leadrIdsList",
      "outputs": [
        {
          "internalType": "address",
          "name": "",
          "type": "address"
        }
      ],
      "stateMutability": "view",
      "type": "function"
    },
    {
      "inputs": [],
      "name": "lpBusdSct",
      "outputs": [
        {
          "internalType": "contract IPancakePair",
          "name": "",
          "type": "address"
        }
      ],
      "stateMutability": "view",
      "type": "function"
    },
    {
      "inputs": [],
      "name": "maxSlippage",
      "outputs": [
        {
          "internalType": "uint256",
          "name": "",
          "type": "uint256"
        }
      ],
      "stateMutability": "view",
      "type": "function"
    },
    {
      "inputs": [],
      "name": "minStakeAmount",
      "outputs": [
        {
          "internalType": "uint256",
          "name": "",
          "type": "uint256"
        }
      ],
      "stateMutability": "view",
      "type": "function"
    },
    {
      "inputs": [],
      "name": "onceBindRewardSct",
      "outputs": [
        {
          "internalType": "uint256",
          "name": "",
          "type": "uint256"
        }
      ],
      "stateMutability": "view",
      "type": "function"
    },
    {
      "inputs": [],
      "name": "pancakeRouter",
      "outputs": [
        {
          "internalType": "contract IPancakeRouter02",
          "name": "",
          "type": "address"
        }
      ],
      "stateMutability": "view",
      "type": "function"
    },
    {
      "inputs": [],
      "name": "pool",
      "outputs": [
        {
          "internalType": "contract PlanetPool",
          "name": "",
          "type": "address"
        }
      ],
      "stateMutability": "view",
      "type": "function"
    },
    {
      "inputs": [
        {
          "internalType": "uint256",
          "name": "_amount",
          "type": "uint256"
        }
      ],
      "name": "preApprove",
      "outputs": [],
      "stateMutability": "nonpayable",
      "type": "function"
    },
    {
      "inputs": [],
      "name": "quitRegister",
      "outputs": [],
      "stateMutability": "nonpayable",
      "type": "function"
    },
    {
      "inputs": [],
      "name": "registerTeamLeader",
      "outputs": [],
      "stateMutability": "nonpayable",
      "type": "function"
    },
    {
      "inputs": [
        {
          "internalType": "bytes32",
          "name": "role",
          "type": "bytes32"
        },
        {
          "internalType": "address",
          "name": "account",
          "type": "address"
        }
      ],
      "name": "renounceRole",
      "outputs": [],
      "stateMutability": "nonpayable",
      "type": "function"
    },
    {
      "inputs": [
        {
          "internalType": "bytes32",
          "name": "role",
          "type": "bytes32"
        },
        {
          "internalType": "address",
          "name": "account",
          "type": "address"
        }
      ],
      "name": "revokeRole",
      "outputs": [],
      "stateMutability": "nonpayable",
      "type": "function"
    },
    {
      "inputs": [],
      "name": "rewardCalcRatio",
      "outputs": [
        {
          "internalType": "uint256",
          "name": "",
          "type": "uint256"
        }
      ],
      "stateMutability": "view",
      "type": "function"
    },
    {
      "inputs": [],
      "name": "rewardToken",
      "outputs": [
        {
          "internalType": "contract IERC20",
          "name": "",
          "type": "address"
        }
      ],
      "stateMutability": "view",
      "type": "function"
    },
    {
      "inputs": [],
      "name": "sct",
      "outputs": [
        {
          "internalType": "contract IERC20",
          "name": "",
          "type": "address"
        }
      ],
      "stateMutability": "view",
      "type": "function"
    },
    {
      "inputs": [
        {
          "internalType": "uint256[]",
          "name": "_bindAmountArr",
          "type": "uint256[]"
        }
      ],
      "name": "setBindAmountArr",
      "outputs": [],
      "stateMutability": "nonpayable",
      "type": "function"
    },
    {
      "inputs": [
        {
          "internalType": "uint256",
          "name": "_bindUsdtAmount",
          "type": "uint256"
        }
      ],
      "name": "setBindUsdtAmount",
      "outputs": [],
      "stateMutability": "nonpayable",
      "type": "function"
    },
    {
      "inputs": [
        {
          "internalType": "uint256",
          "name": "_currentLeaderID",
          "type": "uint256"
        }
      ],
      "name": "setCurrentLeaderID",
      "outputs": [],
      "stateMutability": "nonpayable",
      "type": "function"
    },
    {
      "inputs": [
        {
          "internalType": "address",
          "name": "_leader",
          "type": "address"
        },
        {
          "internalType": "bool",
          "name": "effect",
          "type": "bool"
        }
      ],
      "name": "setLeaderEffect",
      "outputs": [],
      "stateMutability": "nonpayable",
      "type": "function"
    },
    {
      "inputs": [
        {
          "internalType": "uint256",
          "name": "_currentLeaderID",
          "type": "uint256"
        },
        {
          "internalType": "uint256",
          "name": "_newID",
          "type": "uint256"
        }
      ],
      "name": "setLeaderID",
      "outputs": [],
      "stateMutability": "nonpayable",
      "type": "function"
    },
    {
      "inputs": [
        {
          "internalType": "uint256",
          "name": "_maxSlippage",
          "type": "uint256"
        }
      ],
      "name": "setMaxSlippage",
      "outputs": [],
      "stateMutability": "nonpayable",
      "type": "function"
    },
    {
      "inputs": [
        {
          "internalType": "uint256",
          "name": "_minStakeAmount",
          "type": "uint256"
        }
      ],
      "name": "setMinStakeAmount",
      "outputs": [],
      "stateMutability": "nonpayable",
      "type": "function"
    },
    {
      "inputs": [
        {
          "internalType": "uint256",
          "name": "_onceBindRewardSct",
          "type": "uint256"
        }
      ],
      "name": "setOnceBindRewardSct",
      "outputs": [],
      "stateMutability": "nonpayable",
      "type": "function"
    },
    {
      "inputs": [
        {
          "internalType": "uint256",
          "name": "_ratio",
          "type": "uint256"
        }
      ],
      "name": "setRatio",
      "outputs": [],
      "stateMutability": "nonpayable",
      "type": "function"
    },
    {
      "inputs": [
        {
          "internalType": "address",
          "name": "_treasury",
          "type": "address"
        }
      ],
      "name": "setTreasury",
      "outputs": [],
      "stateMutability": "nonpayable",
      "type": "function"
    },
    {
      "inputs": [],
      "name": "stakeToken",
      "outputs": [
        {
          "internalType": "contract IERC20",
          "name": "",
          "type": "address"
        }
      ],
      "stateMutability": "view",
      "type": "function"
    },
    {
      "inputs": [
        {
          "internalType": "bytes4",
          "name": "interfaceId",
          "type": "bytes4"
        }
      ],
      "name": "supportsInterface",
      "outputs": [
        {
          "internalType": "bool",
          "name": "",
          "type": "bool"
        }
      ],
      "stateMutability": "view",
      "type": "function"
    },
    {
      "inputs": [],
      "name": "treasury",
      "outputs": [
        {
          "internalType": "address",
          "name": "",
          "type": "address"
        }
      ],
      "stateMutability": "view",
      "type": "function"
    },
    {
      "inputs": [
        {
          "internalType": "address",
          "name": "",
          "type": "address"
        }
      ],
      "name": "users",
      "outputs": [
        {
          "internalType": "address",
          "name": "",
          "type": "address"
        }
      ],
      "stateMutability": "view",
      "type": "function"
    },
    {
      "inputs": [],
      "name": "viewCanRegisterTeamLeader",
      "outputs": [
        {
          "internalType": "bool",
          "name": "",
          "type": "bool"
        }
      ],
      "stateMutability": "view",
      "type": "function"
    },
    {
      "inputs": [],
      "name": "withdrawReward",
      "outputs": [],
      "stateMutability": "nonpayable",
      "type": "function"
    }
  ],
  "bytecode": "0x60806040527355d398326f99059ff775485246999027b3197955600460006101000a81548173ffffffffffffffffffffffffffffffffffffffff021916908373ffffffffffffffffffffffffffffffffffffffff16021790555069021e19e0c9bab2400000600955692a5a058fc295ed000000600a55681043561a8829300000600b55681b1ae4d6e2ef500000600c556040518060400160405280610bb861ffff1681526020016103e861ffff16815250600d906002620000c29291906200069b565b50348015620000d057600080fd5b50620000e66000801b336200040f60201b60201c565b620001187f241ecf16d79d0f8dbfb92cbc07fe17840425976cf0667f022fe9877caa831b08336200040f60201b60201c565b7310ed43c718714eb63d5aa57b78b54704e256024e600e60006101000a81548173ffffffffffffffffffffffffffffffffffffffff021916908373ffffffffffffffffffffffffffffffffffffffff1602179055507315c767f32b04a4d3d29d90ae4b3c20506e441ad6601160006101000a81548173ffffffffffffffffffffffffffffffffffffffff021916908373ffffffffffffffffffffffffffffffffffffffff1602179055507355d398326f99059ff775485246999027b3197955601060006101000a81548173ffffffffffffffffffffffffffffffffffffffff021916908373ffffffffffffffffffffffffffffffffffffffff160217905550737a27f0419289d703896877594b93a023828585e4600f60006101000a81548173ffffffffffffffffffffffffffffffffffffffff021916908373ffffffffffffffffffffffffffffffffffffffff16021790555073206707b2cc8ae6ddc2d24278eb0ee72e25374111600260006101000a81548173ffffffffffffffffffffffffffffffffffffffff021916908373ffffffffffffffffffffffffffffffffffffffff160217905550737a27f0419289d703896877594b93a023828585e4600360006101000a81548173ffffffffffffffffffffffffffffffffffffffff021916908373ffffffffffffffffffffffffffffffffffffffff16021790555061271060068190555061012c60138190555061dead601260006101000a81548173ffffffffffffffffffffffffffffffffffffffff021916908373ffffffffffffffffffffffffffffffffffffffff16021790555073f9507d5524343c4a18c7b2c62bc39bf3949bcb07601460006101000a81548173ffffffffffffffffffffffffffffffffffffffff021916908373ffffffffffffffffffffffffffffffffffffffff160217905550600060158190555033600560006101000a81548173ffffffffffffffffffffffffffffffffffffffff021916908373ffffffffffffffffffffffffffffffffffffffff16021790555062000712565b6200042182826200042560201b60201c565b5050565b6200043782826200046360201b60201c565b6200045e81600160008581526020019081526020016000206200055460201b90919060201c565b505050565b6200047582826200058c60201b60201c565b6200055057600160008084815260200190815260200160002060000160008373ffffffffffffffffffffffffffffffffffffffff1673ffffffffffffffffffffffffffffffffffffffff16815260200190815260200160002060006101000a81548160ff021916908315150217905550620004f5620005f660201b60201c565b73ffffffffffffffffffffffffffffffffffffffff168173ffffffffffffffffffffffffffffffffffffffff16837f2f8788117e7eff1d82e926ec794901d17c78024a50270940304540a733656f0d60405160405180910390a45b5050565b600062000584836000018373ffffffffffffffffffffffffffffffffffffffff1660001b620005fe60201b60201c565b905092915050565b600080600084815260200190815260200160002060000160008373ffffffffffffffffffffffffffffffffffffffff1673ffffffffffffffffffffffffffffffffffffffff16815260200190815260200160002060009054906101000a900460ff16905092915050565b600033905090565b60006200061283836200067860201b60201c565b6200066d57826000018290806001815401808255809150506001900390600052602060002001600090919091909150558260000180549050836001016000848152602001908152602001600020819055506001905062000672565b600090505b92915050565b600080836001016000848152602001908152602001600020541415905092915050565b828054828255906000526020600020908101928215620006e0579160200282015b82811115620006df578251829061ffff16905591602001919060010190620006bc565b5b509050620006ef9190620006f3565b5090565b5b808211156200070e576000816000905550600101620006f4565b5090565b615eea80620007226000396000f3fe608060405234801561001057600080fd5b506004361061030c5760003560e01c80639010d07c1161019d578063ca15c873116100e9578063ec87621c116100a2578063f7aa67eb1161007c578063f7aa67eb14610958578063f7c618c114610976578063fe8d246214610994578063ffba732b1461099e5761030c565b8063ec87621c14610900578063f0f442601461091e578063f18876841461093a5761030c565b8063ca15c8731461081a578063d547741f1461084a578063d6491c0e14610866578063dbca70dd14610896578063de05e4a8146108b4578063eb4af045146108e45761030c565b8063a5b4794a11610156578063c074994d11610130578063c074994d146107ba578063c21ebd07146107d6578063c519c4e9146107f4578063c885bc58146108105761030c565b8063a5b4794a14610750578063a87430ba1461076e578063b2237ba31461079e5761030c565b80639010d07c1461066a57806391d148541461069a57806395b01c90146106ca57806398d27c23146106e6578063a14a9f8f14610716578063a217fddf146107325761030c565b806342cd745f1161025c5780636abb0b2311610215578063807eab39116101ef578063807eab39146105f6578063824941881461061257806384eba9ec1461062e5780638c04166f1461064c5761030c565b80636abb0b231461058357806372a070be146105a1578063749ea598146105bf5761030c565b806342cd745f146104d557806343f68a49146104f157806351ed6a301461050d57806361d027b31461052b578063651197c4146105495780636522c8f6146105675761030c565b8063248a9ca3116102c95780632f2ff15d116102a35780632f2ff15d146104615780633551548c1461047d57806336568abe1461049b5780633ca5b234146104b75761030c565b8063248a9ca3146103f757806328200364146104275780632897fb1b146104315761030c565b806301ffc9a7146103115780630923777a146103415780630cf7154b1461035d578063125bfb661461038d57806316f0115b146103a957806323ee781d146103c7575b600080fd5b61032b60048036038101906103269190614374565b6109bc565b60405161033891906143bc565b60405180910390f35b61035b6004803603810190610356919061443c565b610a36565b005b610377600480360381019061037291906144bf565b610b91565b60405161038491906143bc565b60405180910390f35b6103a760048036038101906103a2919061454a565b610bfd565b005b6103b1610c58565b6040516103be91906145fc565b60405180910390f35b6103e160048036038101906103dc9190614617565b610c7e565b6040516103ee9190614653565b60405180910390f35b610411600480360381019061040c91906146a4565b611052565b60405161041e91906146e0565b60405180910390f35b61042f611071565b005b61044b60048036038101906104469190614617565b6115c9565b6040516104589190614653565b60405180910390f35b61047b600480360381019061047691906146fb565b611999565b005b6104856119ba565b604051610492919061475c565b60405180910390f35b6104b560048036038101906104b091906146fb565b6119e0565b005b6104bf611a63565b6040516104cc919061475c565b60405180910390f35b6104ef60048036038101906104ea91906147a3565b611a89565b005b61050b600480360381019061050691906144bf565b611b18565b005b610515611b92565b604051610522919061475c565b60405180910390f35b610533611bb8565b6040516105409190614653565b60405180910390f35b610551611bde565b60405161055e91906147f2565b60405180910390f35b610581600480360381019061057c9190614617565b611be4565b005b61058b612006565b60405161059891906147f2565b60405180910390f35b6105a961200c565b6040516105b691906147f2565b60405180910390f35b6105d960048036038101906105d49190614617565b612012565b6040516105ed98979695949392919061480d565b60405180910390f35b610610600480360381019061060b91906144bf565b612087565b005b61062c600480360381019061062791906144bf565b612180565b005b6106366121fa565b60405161064391906143bc565b60405180910390f35b6106546122b1565b60405161066191906147f2565b60405180910390f35b610684600480360381019061067f919061488b565b6122b7565b6040516106919190614653565b60405180910390f35b6106b460048036038101906106af91906146fb565b6122e6565b6040516106c191906143bc565b60405180910390f35b6106e460048036038101906106df91906144bf565b612350565b005b61070060048036038101906106fb9190614617565b6123ca565b60405161070d91906143bc565b60405180910390f35b610730600480360381019061072b9190614617565b6123ea565b005b61073a612d92565b60405161074791906146e0565b60405180910390f35b610758612d99565b60405161076591906147f2565b60405180910390f35b61078860048036038101906107839190614617565b612d9f565b6040516107959190614653565b60405180910390f35b6107b860048036038101906107b391906144bf565b612dd2565b005b6107d460048036038101906107cf91906148cb565b612e4a565b005b6107de613001565b6040516107eb919061492c565b60405180910390f35b61080e600480360381019061080991906144bf565b613027565b005b61081861309f565b005b610834600480360381019061082f91906146a4565b613267565b60405161084191906147f2565b60405180910390f35b610864600480360381019061085f91906146fb565b61328b565b005b610880600480360381019061087b91906144bf565b6132ac565b60405161088d9190614653565b60405180910390f35b61089e6132df565b6040516108ab91906147f2565b60405180910390f35b6108ce60048036038101906108c991906144bf565b6132e5565b6040516108db91906147f2565b60405180910390f35b6108fe60048036038101906108f991906144bf565b613309565b005b610908613382565b60405161091591906146e0565b60405180910390f35b61093860048036038101906109339190614617565b6133a6565b005b610942613415565b60405161094f91906147f2565b60405180910390f35b61096061341b565b60405161096d9190614968565b60405180910390f35b61097e613441565b60405161098b919061475c565b60405180910390f35b61099c613467565b005b6109a661364b565b6040516109b391906149a4565b60405180910390f35b60007f5a05180f000000000000000000000000000000000000000000000000000000007bffffffffffffffffffffffffffffffffffffffffffffffffffffffff1916827bffffffffffffffffffffffffffffffffffffffffffffffffffffffff19161480610a2f5750610a2e82613671565b5b9050919050565b7f241ecf16d79d0f8dbfb92cbc07fe17840425976cf0667f022fe9877caa831b08610a60816136eb565b60028383905014610aa6576040517f08c379a0000000000000000000000000000000000000000000000000000000008152600401610a9d90614a1c565b60405180910390fd5b606483836000818110610abc57610abb614a3c565b5b9050602002013510610b03576040517f08c379a0000000000000000000000000000000000000000000000000000000008152600401610afa90614ab7565b60405180910390fd5b82826001818110610b1757610b16614a3c565b5b9050602002013583836000818110610b3257610b31614a3c565b5b905060200201351015610b7a576040517f08c379a0000000000000000000000000000000000000000000000000000000008152600401610b7190614ab7565b60405180910390fd5b8282600d9190610b8b92919061429e565b50505050565b60008073ffffffffffffffffffffffffffffffffffffffff166017600084815260200190815260200160002060009054906101000a900473ffffffffffffffffffffffffffffffffffffffff1673ffffffffffffffffffffffffffffffffffffffff1614159050919050565b7f241ecf16d79d0f8dbfb92cbc07fe17840425976cf0667f022fe9877caa831b08610c27816136eb565b610c5283838673ffffffffffffffffffffffffffffffffffffffff166136ff9092919063ffffffff16565b50505050565b600260009054906101000a900473ffffffffffffffffffffffffffffffffffffffff1681565b600080601660008473ffffffffffffffffffffffffffffffffffffffff1673ffffffffffffffffffffffffffffffffffffffff168152602001908152602001600020604051806101000160405290816000820160009054906101000a900473ffffffffffffffffffffffffffffffffffffffff1673ffffffffffffffffffffffffffffffffffffffff1673ffffffffffffffffffffffffffffffffffffffff16815260200160018201548152602001600282015481526020016003820154815260200160048201548152602001600582015481526020016006820160009054906101000a900460ff1615151515815260200160078201548152505090508060c001518015610dbd5750600073ffffffffffffffffffffffffffffffffffffffff16816000015173ffffffffffffffffffffffffffffffffffffffff1614155b15610dcf57806000015191505061104d565b6000601860008573ffffffffffffffffffffffffffffffffffffffff1673ffffffffffffffffffffffffffffffffffffffff16815260200190815260200160002060009054906101000a900473ffffffffffffffffffffffffffffffffffffffff1690506000600190505b600073ffffffffffffffffffffffffffffffffffffffff168273ffffffffffffffffffffffffffffffffffffffff1614158015610e775750601e81105b15611045576000601660008473ffffffffffffffffffffffffffffffffffffffff1673ffffffffffffffffffffffffffffffffffffffff168152602001908152602001600020604051806101000160405290816000820160009054906101000a900473ffffffffffffffffffffffffffffffffffffffff1673ffffffffffffffffffffffffffffffffffffffff1673ffffffffffffffffffffffffffffffffffffffff16815260200160018201548152602001600282015481526020016003820154815260200160048201548152602001600582015481526020016006820160009054906101000a900460ff1615151515815260200160078201548152505090508060c001518015610fba5750600073ffffffffffffffffffffffffffffffffffffffff16816000015173ffffffffffffffffffffffffffffffffffffffff1614155b15610fcf57806000015194505050505061104d565b601860008473ffffffffffffffffffffffffffffffffffffffff1673ffffffffffffffffffffffffffffffffffffffff16815260200190815260200160002060009054906101000a900473ffffffffffffffffffffffffffffffffffffffff169250818061103c90614b06565b92505050610e3a565b600093505050505b919050565b6000806000838152602001908152602001600020600101549050919050565b6000600260009054906101000a900473ffffffffffffffffffffffffffffffffffffffff1673ffffffffffffffffffffffffffffffffffffffff166384a748fa336040518263ffffffff1660e01b81526004016110ce9190614653565b602060405180830381865afa1580156110eb573d6000803e3d6000fd5b505050506040513d601f19601f8201168201806040525081019061110f9190614b63565b90506000811415801561112157504381115b611160576040517f08c379a000000000000000000000000000000000000000000000000000000000815260040161115790614c02565b60405180910390fd5b6000601660003373ffffffffffffffffffffffffffffffffffffffff1673ffffffffffffffffffffffffffffffffffffffff16815260200190815260200160002090503373ffffffffffffffffffffffffffffffffffffffff168160000160009054906101000a900473ffffffffffffffffffffffffffffffffffffffff1673ffffffffffffffffffffffffffffffffffffffff161480156112175750600015158160060160009054906101000a900460ff161515145b1561133a5760018160060160006101000a81548160ff02191690831515021790555060095481600101600082825461124f9190614c22565b925050819055506008600081548092919061126990614b06565b91905055506112e133600560009054906101000a900473ffffffffffffffffffffffffffffffffffffffff16600954600460009054906101000a900473ffffffffffffffffffffffffffffffffffffffff1673ffffffffffffffffffffffffffffffffffffffff16613785909392919063ffffffff16565b3373ffffffffffffffffffffffffffffffffffffffff167f06bfaaf0f44e8b91ffb62bf4fa817eb1e5dd870cf3c551b5b2cf456d28b29479826002015460405161132b91906147f2565b60405180910390a250506115c7565b600073ffffffffffffffffffffffffffffffffffffffff168160000160009054906101000a900473ffffffffffffffffffffffffffffffffffffffff1673ffffffffffffffffffffffffffffffffffffffff16146113cd576040517f08c379a00000000000000000000000000000000000000000000000000000000081526004016113c490614cc8565b60405180910390fd5b338160000160006101000a81548173ffffffffffffffffffffffffffffffffffffffff021916908373ffffffffffffffffffffffffffffffffffffffff1602179055506007600081548092919061142390614b06565b919050558160020181905550600a54816003018190555060008160040181905550600081600501819055506009548160010160008282546114649190614c22565b9250508190555060018160060160006101000a81548160ff021916908315150217905550438160070181905550600860008154809291906114a490614b06565b919050555033601760008360020154815260200190815260200160002060006101000a81548173ffffffffffffffffffffffffffffffffffffffff021916908373ffffffffffffffffffffffffffffffffffffffff16021790555061157233600560009054906101000a900473ffffffffffffffffffffffffffffffffffffffff16600954600460009054906101000a900473ffffffffffffffffffffffffffffffffffffffff1673ffffffffffffffffffffffffffffffffffffffff16613785909392919063ffffffff16565b3373ffffffffffffffffffffffffffffffffffffffff167f06bfaaf0f44e8b91ffb62bf4fa817eb1e5dd870cf3c551b5b2cf456d28b2947982600201546040516115bc91906147f2565b60405180910390a250505b565b600080601660008473ffffffffffffffffffffffffffffffffffffffff1673ffffffffffffffffffffffffffffffffffffffff168152602001908152602001600020604051806101000160405290816000820160009054906101000a900473ffffffffffffffffffffffffffffffffffffffff1673ffffffffffffffffffffffffffffffffffffffff1673ffffffffffffffffffffffffffffffffffffffff16815260200160018201548152602001600282015481526020016003820154815260200160048201548152602001600582015481526020016006820160009054906101000a900460ff1615151515815260200160078201548152505090508060c0015180156117085750600073ffffffffffffffffffffffffffffffffffffffff16816000015173ffffffffffffffffffffffffffffffffffffffff1614155b1561171a578060000151915050611994565b6000601860008573ffffffffffffffffffffffffffffffffffffffff1673ffffffffffffffffffffffffffffffffffffffff16815260200190815260200160002060009054906101000a900473ffffffffffffffffffffffffffffffffffffffff16905060005b600073ffffffffffffffffffffffffffffffffffffffff168273ffffffffffffffffffffffffffffffffffffffff16141580156117be5750601e81105b1561198c576000601660008473ffffffffffffffffffffffffffffffffffffffff1673ffffffffffffffffffffffffffffffffffffffff168152602001908152602001600020604051806101000160405290816000820160009054906101000a900473ffffffffffffffffffffffffffffffffffffffff1673ffffffffffffffffffffffffffffffffffffffff1673ffffffffffffffffffffffffffffffffffffffff16815260200160018201548152602001600282015481526020016003820154815260200160048201548152602001600582015481526020016006820160009054906101000a900460ff1615151515815260200160078201548152505090508060c0015180156119015750600073ffffffffffffffffffffffffffffffffffffffff16816000015173ffffffffffffffffffffffffffffffffffffffff1614155b15611916578060000151945050505050611994565b601860008473ffffffffffffffffffffffffffffffffffffffff1673ffffffffffffffffffffffffffffffffffffffff16815260200190815260200160002060009054906101000a900473ffffffffffffffffffffffffffffffffffffffff169250818061198390614b06565b92505050611781565b600093505050505b919050565b6119a282611052565b6119ab816136eb565b6119b5838361380e565b505050565b600f60009054906101000a900473ffffffffffffffffffffffffffffffffffffffff1681565b6119e8613842565b73ffffffffffffffffffffffffffffffffffffffff168173ffffffffffffffffffffffffffffffffffffffff1614611a55576040517f08c379a0000000000000000000000000000000000000000000000000000000008152600401611a4c90614d5a565b60405180910390fd5b611a5f828261384a565b5050565b601060009054906101000a900473ffffffffffffffffffffffffffffffffffffffff1681565b7f241ecf16d79d0f8dbfb92cbc07fe17840425976cf0667f022fe9877caa831b08611ab3816136eb565b6000601660008573ffffffffffffffffffffffffffffffffffffffff1673ffffffffffffffffffffffffffffffffffffffff1681526020019081526020016000209050828160060160006101000a81548160ff02191690831515021790555050505050565b7f241ecf16d79d0f8dbfb92cbc07fe17840425976cf0667f022fe9877caa831b08611b42816136eb565b612710821115611b87576040517f08c379a0000000000000000000000000000000000000000000000000000000008152600401611b7e90614dc6565b60405180910390fd5b816013819055505050565b600460009054906101000a900473ffffffffffffffffffffffffffffffffffffffff1681565b600560009054906101000a900473ffffffffffffffffffffffffffffffffffffffff1681565b600b5481565b601960003373ffffffffffffffffffffffffffffffffffffffff1673ffffffffffffffffffffffffffffffffffffffff16815260200190815260200160002060009054906101000a900460ff1615611c71576040517f08c379a0000000000000000000000000000000000000000000000000000000008152600401611c6890614e32565b60405180910390fd5b6000600260009054906101000a900473ffffffffffffffffffffffffffffffffffffffff1673ffffffffffffffffffffffffffffffffffffffff166384a748fa336040518263ffffffff1660e01b8152600401611cce9190614653565b602060405180830381865afa158015611ceb573d6000803e3d6000fd5b505050506040513d601f19601f82011682018060405250810190611d0f9190614b63565b905060008114158015611d225750438110155b611d61576040517f08c379a0000000000000000000000000000000000000000000000000000000008152600401611d5890614c02565b60405180910390fd5b6000601860003373ffffffffffffffffffffffffffffffffffffffff1673ffffffffffffffffffffffffffffffffffffffff16815260200190815260200160002060009054906101000a900473ffffffffffffffffffffffffffffffffffffffff169050600073ffffffffffffffffffffffffffffffffffffffff168173ffffffffffffffffffffffffffffffffffffffff1603611e34576040517f08c379a0000000000000000000000000000000000000000000000000000000008152600401611e2b90614e9e565b60405180910390fd5b6000601660008573ffffffffffffffffffffffffffffffffffffffff1673ffffffffffffffffffffffffffffffffffffffff16815260200190815260200160002090508060060160009054906101000a900460ff16611f6b576001601960003373ffffffffffffffffffffffffffffffffffffffff1673ffffffffffffffffffffffffffffffffffffffff16815260200190815260200160002060006101000a81548160ff0219169083151502179055508060000160009054906101000a900473ffffffffffffffffffffffffffffffffffffffff1673ffffffffffffffffffffffffffffffffffffffff163373ffffffffffffffffffffffffffffffffffffffff167fb5566e1d79eb0877b17aa59230fca5bee7b52a5732a23971d30fe9e7c8f3562260405160405180910390a3505050612003565b600b54816004016000828254611f819190614c22565b925050819055508060030154816004015410611fa557806003015481600401819055505b8173ffffffffffffffffffffffffffffffffffffffff163373ffffffffffffffffffffffffffffffffffffffff167fb5566e1d79eb0877b17aa59230fca5bee7b52a5732a23971d30fe9e7c8f3562260405160405180910390a35050505b50565b600a5481565b600c5481565b60166020528060005260406000206000915090508060000160009054906101000a900473ffffffffffffffffffffffffffffffffffffffff16908060010154908060020154908060030154908060040154908060050154908060060160009054906101000a900460ff16908060070154905088565b7f241ecf16d79d0f8dbfb92cbc07fe17840425976cf0667f022fe9877caa831b086120b1816136eb565b601060009054906101000a900473ffffffffffffffffffffffffffffffffffffffff1673ffffffffffffffffffffffffffffffffffffffff1663095ea7b3600e60009054906101000a900473ffffffffffffffffffffffffffffffffffffffff16846040518363ffffffff1660e01b8152600401612130929190614ebe565b6020604051808303816000875af115801561214f573d6000803e3d6000fd5b505050506040513d601f19601f820116820180604052508101906121739190614efc565b61217c57600080fd5b5050565b7f241ecf16d79d0f8dbfb92cbc07fe17840425976cf0667f022fe9877caa831b086121aa816136eb565b6007548210156121ef576040517f08c379a00000000000000000000000000000000000000000000000000000000081526004016121e690614f75565b60405180910390fd5b816007819055505050565b600080600260009054906101000a900473ffffffffffffffffffffffffffffffffffffffff1673ffffffffffffffffffffffffffffffffffffffff166384a748fa336040518263ffffffff1660e01b81526004016122589190614653565b602060405180830381865afa158015612275573d6000803e3d6000fd5b505050506040513d601f19601f820116820180604052508101906122999190614b63565b9050600081141580156122ab57504381115b91505090565b60135481565b60006122de826001600086815260200190815260200160002061387e90919063ffffffff16565b905092915050565b600080600084815260200190815260200160002060000160008373ffffffffffffffffffffffffffffffffffffffff1673ffffffffffffffffffffffffffffffffffffffff16815260200190815260200160002060009054906101000a900460ff16905092915050565b7f241ecf16d79d0f8dbfb92cbc07fe17840425976cf0667f022fe9877caa831b0861237a816136eb565b6000600b54116123bf576040517f08c379a00000000000000000000000000000000000000000000000000000000081526004016123b690614fe1565b60405180910390fd5b81600b819055505050565b60196020528060005260406000206000915054906101000a900460ff1681565b3373ffffffffffffffffffffffffffffffffffffffff168173ffffffffffffffffffffffffffffffffffffffff1603612458576040517f08c379a000000000000000000000000000000000000000000000000000000000815260040161244f9061504d565b60405180910390fd5b6000600260009054906101000a900473ffffffffffffffffffffffffffffffffffffffff1673ffffffffffffffffffffffffffffffffffffffff166384a748fa336040518263ffffffff1660e01b81526004016124b59190614653565b602060405180830381865afa1580156124d2573d6000803e3d6000fd5b505050506040513d601f19601f820116820180604052508101906124f69190614b63565b90506000811461253b576040517f08c379a0000000000000000000000000000000000000000000000000000000008152600401612532906150df565b60405180910390fd5b6000601860003373ffffffffffffffffffffffffffffffffffffffff1673ffffffffffffffffffffffffffffffffffffffff16815260200190815260200160002060009054906101000a900473ffffffffffffffffffffffffffffffffffffffff169050600073ffffffffffffffffffffffffffffffffffffffff168173ffffffffffffffffffffffffffffffffffffffff161461260e576040517f08c379a00000000000000000000000000000000000000000000000000000000081526004016126059061514b565b60405180910390fd5b600061261984610c7e565b905061266c3330600c54600460009054906101000a900473ffffffffffffffffffffffffffffffffffffffff1673ffffffffffffffffffffffffffffffffffffffff16613785909392919063ffffffff16565b6000600d60018154811061268357612682614a3c565b5b9060005260206000200154600d6000815481106126a3576126a2614a3c565b5b90600052602060002001546126b8919061516b565b9050600061271082600c546126cd919061519f565b6126d79190615210565b90506000811180156127165750600073ffffffffffffffffffffffffffffffffffffffff168373ffffffffffffffffffffffffffffffffffffffff1614155b156127ce576127688382600460009054906101000a900473ffffffffffffffffffffffffffffffffffffffff1673ffffffffffffffffffffffffffffffffffffffff166136ff9092919063ffffffff16565b8273ffffffffffffffffffffffffffffffffffffffff163373ffffffffffffffffffffffffffffffffffffffff167fb9529e34b1212c2bb71b52662e66ec1ea5f50d0cd856dd1d6d26f05c994de399836040516127c591906147f2565b60405180910390a35b6000612710600d6001815481106127e8576127e7614a3c565b5b9060005260206000200154600c54612800919061519f565b61280a9190615210565b90506000600267ffffffffffffffff81111561282957612828615241565b5b6040519080825280602002602001820160405280156128575781602001602082028036833780820191505090505b509050601060009054906101000a900473ffffffffffffffffffffffffffffffffffffffff168160008151811061289157612890614a3c565b5b602002602001019073ffffffffffffffffffffffffffffffffffffffff16908173ffffffffffffffffffffffffffffffffffffffff1681525050600f60009054906101000a900473ffffffffffffffffffffffffffffffffffffffff168160018151811061290257612901614a3c565b5b602002602001019073ffffffffffffffffffffffffffffffffffffffff16908173ffffffffffffffffffffffffffffffffffffffff1681525050600080601160009054906101000a900473ffffffffffffffffffffffffffffffffffffffff1673ffffffffffffffffffffffffffffffffffffffff16630902f1ac6040518163ffffffff1660e01b8152600401606060405180830381865afa1580156129ac573d6000803e3d6000fd5b505050506040513d601f19601f820116820180604052508101906129d091906152f2565b50915091506000600e60009054906101000a900473ffffffffffffffffffffffffffffffffffffffff1673ffffffffffffffffffffffffffffffffffffffff1663054d50d48685856040518463ffffffff1660e01b8152600401612a3693929190615376565b602060405180830381865afa158015612a53573d6000803e3d6000fd5b505050506040513d601f19601f82011682018060405250810190612a779190614b63565b9050600e60009054906101000a900473ffffffffffffffffffffffffffffffffffffffff1673ffffffffffffffffffffffffffffffffffffffff166338ed173986612710601354612710612acb919061516b565b85612ad6919061519f565b612ae09190615210565b87601260009054906101000a900473ffffffffffffffffffffffffffffffffffffffff1661012c42612b129190614c22565b6040518663ffffffff1660e01b8152600401612b3295949392919061546b565b6000604051808303816000875af1158015612b51573d6000803e3d6000fd5b505050506040513d6000823e3d601f19601f82011682018060405250810190612b7a91906155e5565b506000600167ffffffffffffffff811115612b9857612b97615241565b5b604051908082528060200260200182016040528015612bc65781602001602082028036833780820191505090505b5090503381600081518110612bde57612bdd614a3c565b5b602002602001019073ffffffffffffffffffffffffffffffffffffffff16908173ffffffffffffffffffffffffffffffffffffffff1681525050601460009054906101000a900473ffffffffffffffffffffffffffffffffffffffff1673ffffffffffffffffffffffffffffffffffffffff1663dd45530a6015546001846040518463ffffffff1660e01b8152600401612c7a93929190615669565b600060405180830381600087803b158015612c9457600080fd5b505af1158015612ca8573d6000803e3d6000fd5b505050508b601860003373ffffffffffffffffffffffffffffffffffffffff1673ffffffffffffffffffffffffffffffffffffffff16815260200190815260200160002060006101000a81548173ffffffffffffffffffffffffffffffffffffffff021916908373ffffffffffffffffffffffffffffffffffffffff1602179055508b73ffffffffffffffffffffffffffffffffffffffff163373ffffffffffffffffffffffffffffffffffffffff167faedcbe757d0af5671d08686487d4ddf9c86e82687daf8fd291edfe54b7e9707c60405160405180910390a3505050505050505050505050565b6000801b81565b60155481565b60186020528060005260406000206000915054906101000a900473ffffffffffffffffffffffffffffffffffffffff1681565b7f241ecf16d79d0f8dbfb92cbc07fe17840425976cf0667f022fe9877caa831b08612dfc816136eb565b60008203612e3f576040517f08c379a0000000000000000000000000000000000000000000000000000000008152600401612e36906156f3565b60405180910390fd5b816006819055505050565b7f241ecf16d79d0f8dbfb92cbc07fe17840425976cf0667f022fe9877caa831b08612e74816136eb565b6000601660003373ffffffffffffffffffffffffffffffffffffffff1673ffffffffffffffffffffffffffffffffffffffff1681526020019081526020016000209050612ec083610b91565b612eff576040517f08c379a0000000000000000000000000000000000000000000000000000000008152600401612ef69061575f565b60405180910390fd5b828160020181905550336017600085815260200190815260200160002060006101000a81548173ffffffffffffffffffffffffffffffffffffffff021916908373ffffffffffffffffffffffffffffffffffffffff16021790555060006017600086815260200190815260200160002060006101000a81548173ffffffffffffffffffffffffffffffffffffffff021916908373ffffffffffffffffffffffffffffffffffffffff1602179055503373ffffffffffffffffffffffffffffffffffffffff167f312d1c0585c0c59c731daf4745aa860025af4dfeffbf9b6e24006bef83f5d34a84604051612ff391906147f2565b60405180910390a250505050565b600e60009054906101000a900473ffffffffffffffffffffffffffffffffffffffff1681565b7f241ecf16d79d0f8dbfb92cbc07fe17840425976cf0667f022fe9877caa831b08613051816136eb565b60008211613094576040517f08c379a000000000000000000000000000000000000000000000000000000000815260040161308b906157cb565b60405180910390fd5b81600c819055505050565b6000601660003373ffffffffffffffffffffffffffffffffffffffff1673ffffffffffffffffffffffffffffffffffffffff16815260200190815260200160002090508060060160009054906101000a900460ff16613133576040517f08c379a000000000000000000000000000000000000000000000000000000000815260040161312a90615837565b60405180910390fd5b600081600501548260040154613149919061516b565b90506000811161318e576040517f08c379a0000000000000000000000000000000000000000000000000000000008152600401613185906158c9565b60405180910390fd5b6131db3382600360009054906101000a900473ffffffffffffffffffffffffffffffffffffffff1673ffffffffffffffffffffffffffffffffffffffff166136ff9092919063ffffffff16565b816004015482600501819055504382600701819055503373ffffffffffffffffffffffffffffffffffffffff167fad71f93891cecc86a28a627d5495c28fabbd31cdd2e93851b16ce3421fdab2e5600360009054906101000a900473ffffffffffffffffffffffffffffffffffffffff168360405161325b929190614ebe565b60405180910390a25050565b600061328460016000848152602001908152602001600020613898565b9050919050565b61329482611052565b61329d816136eb565b6132a7838361384a565b505050565b60176020528060005260406000206000915054906101000a900473ffffffffffffffffffffffffffffffffffffffff1681565b60065481565b600d81815481106132f557600080fd5b906000526020600020016000915090505481565b7f241ecf16d79d0f8dbfb92cbc07fe17840425976cf0667f022fe9877caa831b08613333816136eb565b6000821015613377576040517f08c379a000000000000000000000000000000000000000000000000000000000815260040161336e90615935565b60405180910390fd5b816009819055505050565b7f241ecf16d79d0f8dbfb92cbc07fe17840425976cf0667f022fe9877caa831b0881565b7f241ecf16d79d0f8dbfb92cbc07fe17840425976cf0667f022fe9877caa831b086133d0816136eb565b81600560006101000a81548173ffffffffffffffffffffffffffffffffffffffff021916908373ffffffffffffffffffffffffffffffffffffffff1602179055505050565b60095481565b601460009054906101000a900473ffffffffffffffffffffffffffffffffffffffff1681565b600360009054906101000a900473ffffffffffffffffffffffffffffffffffffffff1681565b6000601660003373ffffffffffffffffffffffffffffffffffffffff1673ffffffffffffffffffffffffffffffffffffffff16815260200190815260200160002090508060060160009054906101000a900460ff166134fb576040517f08c379a00000000000000000000000000000000000000000000000000000000081526004016134f2906159a1565b60405180910390fd5b6000816001015411613542576040517f08c379a000000000000000000000000000000000000000000000000000000000815260040161353990615a0d565b60405180910390fd5b613593338260010154600460009054906101000a900473ffffffffffffffffffffffffffffffffffffffff1673ffffffffffffffffffffffffffffffffffffffff166136ff9092919063ffffffff16565b6000816001018190555060008160060160006101000a81548160ff021916908315150217905550600860008154809291906135cd90615a2d565b91905055508060000160009054906101000a900473ffffffffffffffffffffffffffffffffffffffff1673ffffffffffffffffffffffffffffffffffffffff167ff6569b19f34cb503c5354741f7428b6de87b07660a73efa701eb72e78548b2f9826002015460405161364091906147f2565b60405180910390a250565b601160009054906101000a900473ffffffffffffffffffffffffffffffffffffffff1681565b60007f7965db0b000000000000000000000000000000000000000000000000000000007bffffffffffffffffffffffffffffffffffffffffffffffffffffffff1916827bffffffffffffffffffffffffffffffffffffffffffffffffffffffff191614806136e457506136e3826138ad565b5b9050919050565b6136fc816136f7613842565b613917565b50565b6137808363a9059cbb60e01b848460405160240161371e929190614ebe565b604051602081830303815290604052907bffffffffffffffffffffffffffffffffffffffffffffffffffffffff19166020820180517bffffffffffffffffffffffffffffffffffffffffffffffffffffffff838183161783525050505061399c565b505050565b613808846323b872dd60e01b8585856040516024016137a693929190615a56565b604051602081830303815290604052907bffffffffffffffffffffffffffffffffffffffffffffffffffffffff19166020820180517bffffffffffffffffffffffffffffffffffffffffffffffffffffffff838183161783525050505061399c565b50505050565b6138188282613a64565b61383d8160016000858152602001908152602001600020613b4490919063ffffffff16565b505050565b600033905090565b6138548282613b74565b6138798160016000858152602001908152602001600020613c5590919063ffffffff16565b505050565b600061388d8360000183613c85565b60001c905092915050565b60006138a682600001613cb0565b9050919050565b60007f01ffc9a7000000000000000000000000000000000000000000000000000000007bffffffffffffffffffffffffffffffffffffffffffffffffffffffff1916827bffffffffffffffffffffffffffffffffffffffffffffffffffffffff1916149050919050565b61392182826122e6565b6139985761392e81613cc1565b61393c8360001c6020613cee565b60405160200161394d929190615b96565b6040516020818303038152906040526040517f08c379a000000000000000000000000000000000000000000000000000000000815260040161398f9190615c09565b60405180910390fd5b5050565b60006139fe826040518060400160405280602081526020017f5361666545524332303a206c6f772d6c6576656c2063616c6c206661696c65648152508573ffffffffffffffffffffffffffffffffffffffff16613f2a9092919063ffffffff16565b9050600081511480613a20575080806020019051810190613a1f9190614efc565b5b613a5f576040517f08c379a0000000000000000000000000000000000000000000000000000000008152600401613a5690615c9d565b60405180910390fd5b505050565b613a6e82826122e6565b613b4057600160008084815260200190815260200160002060000160008373ffffffffffffffffffffffffffffffffffffffff1673ffffffffffffffffffffffffffffffffffffffff16815260200190815260200160002060006101000a81548160ff021916908315150217905550613ae5613842565b73ffffffffffffffffffffffffffffffffffffffff168173ffffffffffffffffffffffffffffffffffffffff16837f2f8788117e7eff1d82e926ec794901d17c78024a50270940304540a733656f0d60405160405180910390a45b5050565b6000613b6c836000018373ffffffffffffffffffffffffffffffffffffffff1660001b613f42565b905092915050565b613b7e82826122e6565b15613c5157600080600084815260200190815260200160002060000160008373ffffffffffffffffffffffffffffffffffffffff1673ffffffffffffffffffffffffffffffffffffffff16815260200190815260200160002060006101000a81548160ff021916908315150217905550613bf6613842565b73ffffffffffffffffffffffffffffffffffffffff168173ffffffffffffffffffffffffffffffffffffffff16837ff6391f5c32d9c69d2a47ea670b442974b53935d1edc7fd64eb21e047a839171b60405160405180910390a45b5050565b6000613c7d836000018373ffffffffffffffffffffffffffffffffffffffff1660001b613fb2565b905092915050565b6000826000018281548110613c9d57613c9c614a3c565b5b9060005260206000200154905092915050565b600081600001805490509050919050565b6060613ce78273ffffffffffffffffffffffffffffffffffffffff16601460ff16613cee565b9050919050565b606060006002836002613d01919061519f565b613d0b9190614c22565b67ffffffffffffffff811115613d2457613d23615241565b5b6040519080825280601f01601f191660200182016040528015613d565781602001600182028036833780820191505090505b5090507f300000000000000000000000000000000000000000000000000000000000000081600081518110613d8e57613d8d614a3c565b5b60200101907effffffffffffffffffffffffffffffffffffffffffffffffffffffffffffff1916908160001a9053507f780000000000000000000000000000000000000000000000000000000000000081600181518110613df257613df1614a3c565b5b60200101907effffffffffffffffffffffffffffffffffffffffffffffffffffffffffffff1916908160001a90535060006001846002613e32919061519f565b613e3c9190614c22565b90505b6001811115613edc577f3031323334353637383961626364656600000000000000000000000000000000600f861660108110613e7e57613e7d614a3c565b5b1a60f81b828281518110613e9557613e94614a3c565b5b60200101907effffffffffffffffffffffffffffffffffffffffffffffffffffffffffffff1916908160001a905350600485901c945080613ed590615a2d565b9050613e3f565b5060008414613f20576040517f08c379a0000000000000000000000000000000000000000000000000000000008152600401613f1790615d09565b60405180910390fd5b8091505092915050565b6060613f3984846000856140c6565b90509392505050565b6000613f4e8383614193565b613fa7578260000182908060018154018082558091505060019003906000526020600020016000909190919091505582600001805490508360010160008481526020019081526020016000208190555060019050613fac565b600090505b92915050565b600080836001016000848152602001908152602001600020549050600081146140ba576000600182613fe4919061516b565b9050600060018660000180549050613ffc919061516b565b905081811461406b57600086600001828154811061401d5761401c614a3c565b5b906000526020600020015490508087600001848154811061404157614040614a3c565b5b90600052602060002001819055508387600101600083815260200190815260200160002081905550505b8560000180548061407f5761407e615d29565b5b6001900381819060005260206000200160009055905585600101600086815260200190815260200160002060009055600193505050506140c0565b60009150505b92915050565b60608247101561410b576040517f08c379a000000000000000000000000000000000000000000000000000000000815260040161410290615dca565b60405180910390fd5b6000808673ffffffffffffffffffffffffffffffffffffffff1685876040516141349190615e31565b60006040518083038185875af1925050503d8060008114614171576040519150601f19603f3d011682016040523d82523d6000602084013e614176565b606091505b5091509150614187878383876141b6565b92505050949350505050565b600080836001016000848152602001908152602001600020541415905092915050565b60608315614218576000835103614210576141d08561422b565b61420f576040517f08c379a000000000000000000000000000000000000000000000000000000000815260040161420690615e94565b60405180910390fd5b5b829050614223565b614222838361424e565b5b949350505050565b6000808273ffffffffffffffffffffffffffffffffffffffff163b119050919050565b6000825111156142615781518083602001fd5b806040517f08c379a00000000000000000000000000000000000000000000000000000000081526004016142959190615c09565b60405180910390fd5b8280548282559060005260206000209081019282156142da579160200282015b828111156142d95782358255916020019190600101906142be565b5b5090506142e791906142eb565b5090565b5b808211156143045760008160009055506001016142ec565b5090565b6000604051905090565b600080fd5b600080fd5b60007fffffffff0000000000000000000000000000000000000000000000000000000082169050919050565b6143518161431c565b811461435c57600080fd5b50565b60008135905061436e81614348565b92915050565b60006020828403121561438a57614389614312565b5b60006143988482850161435f565b91505092915050565b60008115159050919050565b6143b6816143a1565b82525050565b60006020820190506143d160008301846143ad565b92915050565b600080fd5b600080fd5b600080fd5b60008083601f8401126143fc576143fb6143d7565b5b8235905067ffffffffffffffff811115614419576144186143dc565b5b602083019150836020820283011115614435576144346143e1565b5b9250929050565b6000806020838503121561445357614452614312565b5b600083013567ffffffffffffffff81111561447157614470614317565b5b61447d858286016143e6565b92509250509250929050565b6000819050919050565b61449c81614489565b81146144a757600080fd5b50565b6000813590506144b981614493565b92915050565b6000602082840312156144d5576144d4614312565b5b60006144e3848285016144aa565b91505092915050565b600073ffffffffffffffffffffffffffffffffffffffff82169050919050565b6000614517826144ec565b9050919050565b6145278161450c565b811461453257600080fd5b50565b6000813590506145448161451e565b92915050565b60008060006060848603121561456357614562614312565b5b600061457186828701614535565b935050602061458286828701614535565b9250506040614593868287016144aa565b9150509250925092565b6000819050919050565b60006145c26145bd6145b8846144ec565b61459d565b6144ec565b9050919050565b60006145d4826145a7565b9050919050565b60006145e6826145c9565b9050919050565b6145f6816145db565b82525050565b600060208201905061461160008301846145ed565b92915050565b60006020828403121561462d5761462c614312565b5b600061463b84828501614535565b91505092915050565b61464d8161450c565b82525050565b60006020820190506146686000830184614644565b92915050565b6000819050919050565b6146818161466e565b811461468c57600080fd5b50565b60008135905061469e81614678565b92915050565b6000602082840312156146ba576146b9614312565b5b60006146c88482850161468f565b91505092915050565b6146da8161466e565b82525050565b60006020820190506146f560008301846146d1565b92915050565b6000806040838503121561471257614711614312565b5b60006147208582860161468f565b925050602061473185828601614535565b9150509250929050565b6000614746826145c9565b9050919050565b6147568161473b565b82525050565b6000602082019050614771600083018461474d565b92915050565b614780816143a1565b811461478b57600080fd5b50565b60008135905061479d81614777565b92915050565b600080604083850312156147ba576147b9614312565b5b60006147c885828601614535565b92505060206147d98582860161478e565b9150509250929050565b6147ec81614489565b82525050565b600060208201905061480760008301846147e3565b92915050565b600061010082019050614823600083018b614644565b614830602083018a6147e3565b61483d60408301896147e3565b61484a60608301886147e3565b61485760808301876147e3565b61486460a08301866147e3565b61487160c08301856143ad565b61487e60e08301846147e3565b9998505050505050505050565b600080604083850312156148a2576148a1614312565b5b60006148b08582860161468f565b92505060206148c1858286016144aa565b9150509250929050565b600080604083850312156148e2576148e1614312565b5b60006148f0858286016144aa565b9250506020614901858286016144aa565b9150509250929050565b6000614916826145c9565b9050919050565b6149268161490b565b82525050565b6000602082019050614941600083018461491d565b92915050565b6000614952826145c9565b9050919050565b61496281614947565b82525050565b600060208201905061497d6000830184614959565b92915050565b600061498e826145c9565b9050919050565b61499e81614983565b82525050565b60006020820190506149b96000830184614995565b92915050565b600082825260208201905092915050565b7f617272206c656e677468206d757374203d203200000000000000000000000000600082015250565b6000614a066013836149bf565b9150614a11826149d0565b602082019050919050565b60006020820190508181036000830152614a35816149f9565b9050919050565b7f4e487b7100000000000000000000000000000000000000000000000000000000600052603260045260246000fd5b7f706172616d73206572726f720000000000000000000000000000000000000000600082015250565b6000614aa1600c836149bf565b9150614aac82614a6b565b602082019050919050565b60006020820190508181036000830152614ad081614a94565b9050919050565b7f4e487b7100000000000000000000000000000000000000000000000000000000600052601160045260246000fd5b6000614b1182614489565b91507fffffffffffffffffffffffffffffffffffffffffffffffffffffffffffffffff8203614b4357614b42614ad7565b5b600182019050919050565b600081519050614b5d81614493565b92915050565b600060208284031215614b7957614b78614312565b5b6000614b8784828501614b4e565b91505092915050565b7f796f75206d757374206265206d696e696e6720696e2074686520506c616e745060008201527f6f6f6c2066697273742100000000000000000000000000000000000000000000602082015250565b6000614bec602a836149bf565b9150614bf782614b90565b604082019050919050565b60006020820190508181036000830152614c1b81614bdf565b9050919050565b6000614c2d82614489565b9150614c3883614489565b9250828201905080821115614c5057614c4f614ad7565b5b92915050565b7f616464726573732068617320616c7265616479206265656e2061206c6561646560008201527f7200000000000000000000000000000000000000000000000000000000000000602082015250565b6000614cb26021836149bf565b9150614cbd82614c56565b604082019050919050565b60006020820190508181036000830152614ce181614ca5565b9050919050565b7f416363657373436f6e74726f6c3a2063616e206f6e6c792072656e6f756e636560008201527f20726f6c657320666f722073656c660000000000000000000000000000000000602082015250565b6000614d44602f836149bf565b9150614d4f82614ce8565b604082019050919050565b60006020820190508181036000830152614d7381614d37565b9050919050565b7f6d6178536c697070616765206d757374203c3d20313030303000000000000000600082015250565b6000614db06019836149bf565b9150614dbb82614d7a565b602082019050919050565b60006020820190508181036000830152614ddf81614da3565b9050919050565b7f796f75206861766520616c726561647920616374697661746564210000000000600082015250565b6000614e1c601b836149bf565b9150614e2782614de6565b602082019050919050565b60006020820190508181036000830152614e4b81614e0f565b9050919050565b7f796f752068617665206e6f742062696e6420696e766974657200000000000000600082015250565b6000614e886019836149bf565b9150614e9382614e52565b602082019050919050565b60006020820190508181036000830152614eb781614e7b565b9050919050565b6000604082019050614ed36000830185614644565b614ee060208301846147e3565b9392505050565b600081519050614ef681614777565b92915050565b600060208284031215614f1257614f11614312565b5b6000614f2084828501614ee7565b91505092915050565b7f6d757374203e3d2063757272656e744c65616465724944000000000000000000600082015250565b6000614f5f6017836149bf565b9150614f6a82614f29565b602082019050919050565b60006020820190508181036000830152614f8e81614f52565b9050919050565b7f6f6e636542696e64526577617264536374206d757374203e2030000000000000600082015250565b6000614fcb601a836149bf565b9150614fd682614f95565b602082019050919050565b60006020820190508181036000830152614ffa81614fbe565b9050919050565b7f63616e277420696e766974652073656c66000000000000000000000000000000600082015250565b60006150376011836149bf565b915061504282615001565b602082019050919050565b600060208201905081810360008301526150668161502a565b9050919050565b7f796f7520616c7265616479206265206d696e696e6720696e2074686520506c6160008201527f6e74506f6f6c0000000000000000000000000000000000000000000000000000602082015250565b60006150c96026836149bf565b91506150d48261506d565b604082019050919050565b600060208201905081810360008301526150f8816150bc565b9050919050565b7f796f75206861766520616c72656164792062696e6420696e7669746572000000600082015250565b6000615135601d836149bf565b9150615140826150ff565b602082019050919050565b6000602082019050818103600083015261516481615128565b9050919050565b600061517682614489565b915061518183614489565b925082820390508181111561519957615198614ad7565b5b92915050565b60006151aa82614489565b91506151b583614489565b92508282026151c381614489565b915082820484148315176151da576151d9614ad7565b5b5092915050565b7f4e487b7100000000000000000000000000000000000000000000000000000000600052601260045260246000fd5b600061521b82614489565b915061522683614489565b925082615236576152356151e1565b5b828204905092915050565b7f4e487b7100000000000000000000000000000000000000000000000000000000600052604160045260246000fd5b60006dffffffffffffffffffffffffffff82169050919050565b61529381615270565b811461529e57600080fd5b50565b6000815190506152b08161528a565b92915050565b600063ffffffff82169050919050565b6152cf816152b6565b81146152da57600080fd5b50565b6000815190506152ec816152c6565b92915050565b60008060006060848603121561530b5761530a614312565b5b6000615319868287016152a1565b935050602061532a868287016152a1565b925050604061533b868287016152dd565b9150509250925092565b600061536061535b61535684615270565b61459d565b614489565b9050919050565b61537081615345565b82525050565b600060608201905061538b60008301866147e3565b6153986020830185615367565b6153a56040830184615367565b949350505050565b600081519050919050565b600082825260208201905092915050565b6000819050602082019050919050565b6153e28161450c565b82525050565b60006153f483836153d9565b60208301905092915050565b6000602082019050919050565b6000615418826153ad565b61542281856153b8565b935061542d836153c9565b8060005b8381101561545e57815161544588826153e8565b975061545083615400565b925050600181019050615431565b5085935050505092915050565b600060a08201905061548060008301886147e3565b61548d60208301876147e3565b818103604083015261549f818661540d565b90506154ae6060830185614644565b6154bb60808301846147e3565b9695505050505050565b6000601f19601f8301169050919050565b6154df826154c5565b810181811067ffffffffffffffff821117156154fe576154fd615241565b5b80604052505050565b6000615511614308565b905061551d82826154d6565b919050565b600067ffffffffffffffff82111561553d5761553c615241565b5b602082029050602081019050919050565b600061556161555c84615522565b615507565b90508083825260208201905060208402830185811115615584576155836143e1565b5b835b818110156155ad57806155998882614b4e565b845260208401935050602081019050615586565b5050509392505050565b600082601f8301126155cc576155cb6143d7565b5b81516155dc84826020860161554e565b91505092915050565b6000602082840312156155fb576155fa614312565b5b600082015167ffffffffffffffff81111561561957615618614317565b5b615625848285016155b7565b91505092915050565b6000819050919050565b600061565361564e6156498461562e565b61459d565b614489565b9050919050565b61566381615638565b82525050565b600060608201905061567e60008301866147e3565b61568b602083018561565a565b818103604083015261569d818461540d565b9050949350505050565b7f63616e2774207365742072657761726443616c63526174696f203d2030000000600082015250565b60006156dd601d836149bf565b91506156e8826156a7565b602082019050919050565b6000602082019050818103600083015261570c816156d0565b9050919050565b7f5f6e657749642069732065786973742100000000000000000000000000000000600082015250565b60006157496010836149bf565b915061575482615713565b602082019050919050565b600060208201905081810360008301526157788161573c565b9050919050565b7f62696e6455736474416d6f756e74206d757374203e2030000000000000000000600082015250565b60006157b56017836149bf565b91506157c08261577f565b602082019050919050565b600060208201905081810360008301526157e4816157a8565b9050919050565b7f6c65616465722069732065787069726564206e6f770000000000000000000000600082015250565b60006158216015836149bf565b915061582c826157eb565b602082019050919050565b6000602082019050818103600083015261585081615814565b9050919050565b7f6c65616465722068617665206e6f207265776172642063616e2077697468647260008201527f6177210000000000000000000000000000000000000000000000000000000000602082015250565b60006158b36023836149bf565b91506158be82615857565b604082019050919050565b600060208201905081810360008301526158e2816158a6565b9050919050565b7f7374616b65416d6f756e74206d757374203e3d20300000000000000000000000600082015250565b600061591f6015836149bf565b915061592a826158e9565b602082019050919050565b6000602082019050818103600083015261594e81615912565b9050919050565b7f796f7572206566666563742069732066616c7365000000000000000000000000600082015250565b600061598b6014836149bf565b915061599682615955565b602082019050919050565b600060208201905081810360008301526159ba8161597e565b9050919050565b7f796f7572207374616b656420616d6f756e74206d757374203e20300000000000600082015250565b60006159f7601b836149bf565b9150615a02826159c1565b602082019050919050565b60006020820190508181036000830152615a26816159ea565b9050919050565b6000615a3882614489565b915060008203615a4b57615a4a614ad7565b5b600182039050919050565b6000606082019050615a6b6000830186614644565b615a786020830185614644565b615a8560408301846147e3565b949350505050565b600081905092915050565b7f416363657373436f6e74726f6c3a206163636f756e7420000000000000000000600082015250565b6000615ace601783615a8d565b9150615ad982615a98565b601782019050919050565b600081519050919050565b60005b83811015615b0d578082015181840152602081019050615af2565b60008484015250505050565b6000615b2482615ae4565b615b2e8185615a8d565b9350615b3e818560208601615aef565b80840191505092915050565b7f206973206d697373696e6720726f6c6520000000000000000000000000000000600082015250565b6000615b80601183615a8d565b9150615b8b82615b4a565b601182019050919050565b6000615ba182615ac1565b9150615bad8285615b19565b9150615bb882615b73565b9150615bc48284615b19565b91508190509392505050565b6000615bdb82615ae4565b615be581856149bf565b9350615bf5818560208601615aef565b615bfe816154c5565b840191505092915050565b60006020820190508181036000830152615c238184615bd0565b905092915050565b7f5361666545524332303a204552433230206f7065726174696f6e20646964206e60008201527f6f74207375636365656400000000000000000000000000000000000000000000602082015250565b6000615c87602a836149bf565b9150615c9282615c2b565b604082019050919050565b60006020820190508181036000830152615cb681615c7a565b9050919050565b7f537472696e67733a20686578206c656e67746820696e73756666696369656e74600082015250565b6000615cf36020836149bf565b9150615cfe82615cbd565b602082019050919050565b60006020820190508181036000830152615d2281615ce6565b9050919050565b7f4e487b7100000000000000000000000000000000000000000000000000000000600052603160045260246000fd5b7f416464726573733a20696e73756666696369656e742062616c616e636520666f60008201527f722063616c6c0000000000000000000000000000000000000000000000000000602082015250565b6000615db46026836149bf565b9150615dbf82615d58565b604082019050919050565b60006020820190508181036000830152615de381615da7565b9050919050565b600081519050919050565b600081905092915050565b6000615e0b82615dea565b615e158185615df5565b9350615e25818560208601615aef565b80840191505092915050565b6000615e3d8284615e00565b915081905092915050565b7f416464726573733a2063616c6c20746f206e6f6e2d636f6e7472616374000000600082015250565b6000615e7e601d836149bf565b9150615e8982615e48565b602082019050919050565b60006020820190508181036000830152615ead81615e71565b905091905056fea2646970667358221220843985bbd32b33720fab5e09969615266ad02fb5c1281dec23c8fb357857657964736f6c63430008180033",
  "linkReferences": {},
  "deployedLinkReferences": {}
}